{
    "contractName": "EtherstonesRewardManager",
    "abi": [
        {
            "inputs": [
                {
                    "internalType": "address",
                    "name": "_ethsTokenAddress",
                    "type": "address"
                }
            ],
            "stateMutability": "nonpayable",
            "type": "constructor"
        },
        {
            "anonymous": false,
            "inputs": [
                {
                    "indexed": false,
                    "internalType": "address",
                    "name": "owner",
                    "type": "address"
                }
            ],
            "name": "OwnershipTransferred",
            "type": "event"
        },
        {
            "inputs": [],
            "name": "ETHSDecimals",
            "outputs": [
                {
                    "internalType": "uint256",
                    "name": "",
                    "type": "uint256"
                }
            ],
            "stateMutability": "view",
            "type": "function"
        },
        {
            "inputs": [],
            "name": "addAllToCompounder",
            "outputs": [],
            "stateMutability": "nonpayable",
            "type": "function"
        },
        {
            "inputs": [
                {
                    "internalType": "uint256",
                    "name": "_id",
                    "type": "uint256"
                }
            ],
            "name": "addToCompounder",
            "outputs": [],
            "stateMutability": "nonpayable",
            "type": "function"
        },
        {
            "inputs": [
                {
                    "internalType": "address",
                    "name": "adr",
                    "type": "address"
                }
            ],
            "name": "authorize",
            "outputs": [],
            "stateMutability": "nonpayable",
            "type": "function"
        },
        {
            "inputs": [],
            "name": "autoCompound",
            "outputs": [],
            "stateMutability": "nonpayable",
            "type": "function"
        },
        {
            "inputs": [
                {
                    "internalType": "uint256",
                    "name": "",
                    "type": "uint256"
                }
            ],
            "name": "baseCompoundBoost",
            "outputs": [
                {
                    "internalType": "uint256",
                    "name": "",
                    "type": "uint256"
                }
            ],
            "stateMutability": "view",
            "type": "function"
        },
        {
            "inputs": [],
            "name": "baseCompoundBoostDenominator",
            "outputs": [
                {
                    "internalType": "uint256",
                    "name": "",
                    "type": "uint256"
                }
            ],
            "stateMutability": "view",
            "type": "function"
        },
        {
            "inputs": [
                {
                    "internalType": "uint256",
                    "name": "",
                    "type": "uint256"
                }
            ],
            "name": "baseNodeDailyInterest",
            "outputs": [
                {
                    "internalType": "uint256",
                    "name": "",
                    "type": "uint256"
                }
            ],
            "stateMutability": "view",
            "type": "function"
        },
        {
            "inputs": [
                {
                    "internalType": "uint256",
                    "name": "_id",
                    "type": "uint256"
                }
            ],
            "name": "calculateRewards",
            "outputs": [
                {
                    "internalType": "uint256",
                    "name": "",
                    "type": "uint256"
                }
            ],
            "stateMutability": "view",
            "type": "function"
        },
        {
            "inputs": [],
            "name": "claimAllAvailableEtherstoneReward",
            "outputs": [],
            "stateMutability": "nonpayable",
            "type": "function"
        },
        {
            "inputs": [
                {
                    "internalType": "uint256",
                    "name": "_id",
                    "type": "uint256"
                }
            ],
            "name": "claimEtherstoneReward",
            "outputs": [],
            "stateMutability": "nonpayable",
            "type": "function"
        },
        {
            "inputs": [],
            "name": "compoundAllAvailableEtherstoneReward",
            "outputs": [],
            "stateMutability": "nonpayable",
            "type": "function"
        },
        {
            "inputs": [
                {
                    "internalType": "uint256",
                    "name": "_id",
                    "type": "uint256"
                }
            ],
            "name": "compoundEtherstoneReward",
            "outputs": [],
            "stateMutability": "nonpayable",
            "type": "function"
        },
        {
            "inputs": [],
            "name": "ethsToken",
            "outputs": [
                {
                    "internalType": "contract IETHSToken",
                    "name": "",
                    "type": "address"
                }
            ],
            "stateMutability": "view",
            "type": "function"
        },
        {
            "inputs": [
                {
                    "internalType": "uint256",
                    "name": "_id",
                    "type": "uint256"
                }
            ],
            "name": "getDailyNodeEmission",
            "outputs": [
                {
                    "internalType": "uint256",
                    "name": "",
                    "type": "uint256"
                }
            ],
            "stateMutability": "view",
            "type": "function"
        },
        {
            "inputs": [
                {
                    "internalType": "uint256",
                    "name": "_id",
                    "type": "uint256"
                }
            ],
            "name": "getEtherstoneNodeById",
            "outputs": [
                {
                    "components": [
                        {
                            "internalType": "string",
                            "name": "name",
                            "type": "string"
                        },
                        {
                            "internalType": "uint256",
                            "name": "id",
                            "type": "uint256"
                        },
                        {
                            "internalType": "uint256",
                            "name": "lastInteract",
                            "type": "uint256"
                        },
                        {
                            "internalType": "uint256",
                            "name": "lockedETHS",
                            "type": "uint256"
                        },
                        {
                            "internalType": "uint256",
                            "name": "nodeType",
                            "type": "uint256"
                        },
                        {
                            "internalType": "uint256",
                            "name": "tier",
                            "type": "uint256"
                        },
                        {
                            "internalType": "uint256",
                            "name": "timesCompounded",
                            "type": "uint256"
                        },
                        {
                            "internalType": "address",
                            "name": "owner",
                            "type": "address"
                        }
                    ],
                    "internalType": "struct EtherstonesRewardManager.EtherstoneNode",
                    "name": "",
                    "type": "tuple"
                }
            ],
            "stateMutability": "view",
            "type": "function"
        },
        {
            "inputs": [],
            "name": "getNumberOfNodes",
            "outputs": [
                {
                    "internalType": "uint256",
                    "name": "",
                    "type": "uint256"
                }
            ],
            "stateMutability": "view",
            "type": "function"
        },
        {
            "inputs": [
                {
                    "internalType": "address",
                    "name": "_address",
                    "type": "address"
                }
            ],
            "name": "getOwnedNodes",
            "outputs": [
                {
                    "components": [
                        {
                            "internalType": "string",
                            "name": "name",
                            "type": "string"
                        },
                        {
                            "internalType": "uint256",
                            "name": "id",
                            "type": "uint256"
                        },
                        {
                            "internalType": "uint256",
                            "name": "lastInteract",
                            "type": "uint256"
                        },
                        {
                            "internalType": "uint256",
                            "name": "lockedETHS",
                            "type": "uint256"
                        },
                        {
                            "internalType": "uint256",
                            "name": "nodeType",
                            "type": "uint256"
                        },
                        {
                            "internalType": "uint256",
                            "name": "tier",
                            "type": "uint256"
                        },
                        {
                            "internalType": "uint256",
                            "name": "timesCompounded",
                            "type": "uint256"
                        },
                        {
                            "internalType": "address",
                            "name": "owner",
                            "type": "address"
                        }
                    ],
                    "internalType": "struct EtherstonesRewardManager.EtherstoneNode[]",
                    "name": "",
                    "type": "tuple[]"
                }
            ],
            "stateMutability": "view",
            "type": "function"
        },
        {
            "inputs": [],
            "name": "getOwnedNodesInCompounder",
            "outputs": [
                {
                    "internalType": "uint256[]",
                    "name": "",
                    "type": "uint256[]"
                }
            ],
            "stateMutability": "view",
            "type": "function"
        },
        {
            "inputs": [
                {
                    "internalType": "address",
                    "name": "adr",
                    "type": "address"
                }
            ],
            "name": "isAuthorized",
            "outputs": [
                {
                    "internalType": "bool",
                    "name": "",
                    "type": "bool"
                }
            ],
            "stateMutability": "view",
            "type": "function"
        },
        {
            "inputs": [
                {
                    "internalType": "address",
                    "name": "account",
                    "type": "address"
                }
            ],
            "name": "isOwner",
            "outputs": [
                {
                    "internalType": "bool",
                    "name": "",
                    "type": "bool"
                }
            ],
            "stateMutability": "view",
            "type": "function"
        },
        {
            "inputs": [
                {
                    "internalType": "uint256[]",
                    "name": "_ids",
                    "type": "uint256[]"
                },
                {
                    "internalType": "address[]",
                    "name": "_owners",
                    "type": "address[]"
                },
                {
                    "internalType": "address[]",
                    "name": "_recipients",
                    "type": "address[]"
                }
            ],
            "name": "massTransferNodes",
            "outputs": [],
            "stateMutability": "nonpayable",
            "type": "function"
        },
        {
            "inputs": [
                {
                    "internalType": "uint256",
                    "name": "",
                    "type": "uint256"
                }
            ],
            "name": "minMaxBelugaWhale",
            "outputs": [
                {
                    "internalType": "uint256",
                    "name": "",
                    "type": "uint256"
                }
            ],
            "stateMutability": "view",
            "type": "function"
        },
        {
            "inputs": [
                {
                    "internalType": "uint256",
                    "name": "",
                    "type": "uint256"
                }
            ],
            "name": "minMaxBlueWhale",
            "outputs": [
                {
                    "internalType": "uint256",
                    "name": "",
                    "type": "uint256"
                }
            ],
            "stateMutability": "view",
            "type": "function"
        },
        {
            "inputs": [
                {
                    "internalType": "uint256",
                    "name": "",
                    "type": "uint256"
                }
            ],
            "name": "minMaxHumpbackWhale",
            "outputs": [
                {
                    "internalType": "uint256",
                    "name": "",
                    "type": "uint256"
                }
            ],
            "stateMutability": "view",
            "type": "function"
        },
        {
            "inputs": [
                {
                    "internalType": "uint256",
                    "name": "",
                    "type": "uint256"
                }
            ],
            "name": "minMaxKillerWhale",
            "outputs": [
                {
                    "internalType": "uint256",
                    "name": "",
                    "type": "uint256"
                }
            ],
            "stateMutability": "view",
            "type": "function"
        },
        {
            "inputs": [
                {
                    "internalType": "string",
                    "name": "_name",
                    "type": "string"
                },
                {
                    "internalType": "uint256",
                    "name": "_amount",
                    "type": "uint256"
                },
                {
                    "internalType": "uint256",
                    "name": "_nodeType",
                    "type": "uint256"
                }
            ],
            "name": "mintNode",
            "outputs": [],
            "stateMutability": "nonpayable",
            "type": "function"
        },
        {
            "inputs": [],
            "name": "nodeCooldown",
            "outputs": [
                {
                    "internalType": "uint256",
                    "name": "",
                    "type": "uint256"
                }
            ],
            "stateMutability": "view",
            "type": "function"
        },
        {
            "inputs": [],
            "name": "nodeDailyInterestDenominator",
            "outputs": [
                {
                    "internalType": "uint256",
                    "name": "",
                    "type": "uint256"
                }
            ],
            "stateMutability": "view",
            "type": "function"
        },
        {
            "inputs": [],
            "name": "nodeMintingEnabled",
            "outputs": [
                {
                    "internalType": "bool",
                    "name": "",
                    "type": "bool"
                }
            ],
            "stateMutability": "view",
            "type": "function"
        },
        {
            "inputs": [],
            "name": "numNodesInCompounder",
            "outputs": [
                {
                    "internalType": "uint256",
                    "name": "",
                    "type": "uint256"
                }
            ],
            "stateMutability": "view",
            "type": "function"
        },
        {
            "inputs": [],
            "name": "removeAllFromCompounder",
            "outputs": [],
            "stateMutability": "nonpayable",
            "type": "function"
        },
        {
            "inputs": [
                {
                    "internalType": "uint256",
                    "name": "_id",
                    "type": "uint256"
                }
            ],
            "name": "removeFromCompounder",
            "outputs": [],
            "stateMutability": "nonpayable",
            "type": "function"
        },
        {
            "inputs": [],
            "name": "rewardPool",
            "outputs": [
                {
                    "internalType": "address",
                    "name": "",
                    "type": "address"
                }
            ],
            "stateMutability": "view",
            "type": "function"
        },
        {
            "inputs": [
                {
                    "internalType": "uint256",
                    "name": "baseBelugaWhaleBoost",
                    "type": "uint256"
                },
                {
                    "internalType": "uint256",
                    "name": "baseKillerWhaleBoost",
                    "type": "uint256"
                },
                {
                    "internalType": "uint256",
                    "name": "baseHumpbackWhaleBoost",
                    "type": "uint256"
                },
                {
                    "internalType": "uint256",
                    "name": "baseBlueWhaleBoost",
                    "type": "uint256"
                }
            ],
            "name": "setBaseCompoundBoost",
            "outputs": [],
            "stateMutability": "nonpayable",
            "type": "function"
        },
        {
            "inputs": [
                {
                    "internalType": "uint256",
                    "name": "baseBelugaWhaleInterest",
                    "type": "uint256"
                },
                {
                    "internalType": "uint256",
                    "name": "baseKillerWhaleInterest",
                    "type": "uint256"
                },
                {
                    "internalType": "uint256",
                    "name": "baseHumpbackWhaleInterest",
                    "type": "uint256"
                },
                {
                    "internalType": "uint256",
                    "name": "baseBlueWhaleInterest",
                    "type": "uint256"
                }
            ],
            "name": "setBaseDailyNodeInterest",
            "outputs": [],
            "stateMutability": "nonpayable",
            "type": "function"
        },
        {
            "inputs": [
                {
                    "internalType": "uint256",
                    "name": "min",
                    "type": "uint256"
                },
                {
                    "internalType": "uint256",
                    "name": "max",
                    "type": "uint256"
                }
            ],
            "name": "setBelugaWhaleMinMax",
            "outputs": [],
            "stateMutability": "nonpayable",
            "type": "function"
        },
        {
            "inputs": [
                {
                    "internalType": "uint256",
                    "name": "min",
                    "type": "uint256"
                },
                {
                    "internalType": "uint256",
                    "name": "max",
                    "type": "uint256"
                }
            ],
            "name": "setBlueWhaleMinMax",
            "outputs": [],
            "stateMutability": "nonpayable",
            "type": "function"
        },
        {
            "inputs": [
                {
                    "internalType": "uint256",
                    "name": "min",
                    "type": "uint256"
                },
                {
                    "internalType": "uint256",
                    "name": "max",
                    "type": "uint256"
                }
            ],
            "name": "setHumpbackWhaleMinMax",
            "outputs": [],
            "stateMutability": "nonpayable",
            "type": "function"
        },
        {
            "inputs": [
                {
                    "internalType": "uint256",
                    "name": "min",
                    "type": "uint256"
                },
                {
                    "internalType": "uint256",
                    "name": "max",
                    "type": "uint256"
                }
            ],
            "name": "setKillerWhaleMinMax",
            "outputs": [],
            "stateMutability": "nonpayable",
            "type": "function"
        },
        {
            "inputs": [
                {
                    "internalType": "bool",
                    "name": "decision",
                    "type": "bool"
                }
            ],
            "name": "setNodeMintingEnabled",
            "outputs": [],
            "stateMutability": "nonpayable",
            "type": "function"
        },
        {
            "inputs": [
                {
                    "internalType": "uint256",
                    "name": "emerald",
                    "type": "uint256"
                },
                {
                    "internalType": "uint256",
                    "name": "sapphire",
                    "type": "uint256"
                },
                {
                    "internalType": "uint256",
                    "name": "amethyst",
                    "type": "uint256"
                },
                {
                    "internalType": "uint256",
                    "name": "ruby",
                    "type": "uint256"
                },
                {
                    "internalType": "uint256",
                    "name": "radiant",
                    "type": "uint256"
                }
            ],
            "name": "setTierCompoundTimes",
            "outputs": [],
            "stateMutability": "nonpayable",
            "type": "function"
        },
        {
            "inputs": [
                {
                    "internalType": "uint256",
                    "name": "emerald",
                    "type": "uint256"
                },
                {
                    "internalType": "uint256",
                    "name": "sapphire",
                    "type": "uint256"
                },
                {
                    "internalType": "uint256",
                    "name": "amethyst",
                    "type": "uint256"
                },
                {
                    "internalType": "uint256",
                    "name": "ruby",
                    "type": "uint256"
                },
                {
                    "internalType": "uint256",
                    "name": "radiant",
                    "type": "uint256"
                }
            ],
            "name": "setTierMultipliers",
            "outputs": [],
            "stateMutability": "nonpayable",
            "type": "function"
        },
        {
            "inputs": [
                {
                    "internalType": "uint256",
                    "name": "",
                    "type": "uint256"
                }
            ],
            "name": "tierCompoundTimes",
            "outputs": [
                {
                    "internalType": "uint256",
                    "name": "",
                    "type": "uint256"
                }
            ],
            "stateMutability": "view",
            "type": "function"
        },
        {
            "inputs": [
                {
                    "internalType": "uint256",
                    "name": "",
                    "type": "uint256"
                }
            ],
            "name": "tierMultipliers",
            "outputs": [
                {
                    "internalType": "uint256",
                    "name": "",
                    "type": "uint256"
                }
            ],
            "stateMutability": "view",
            "type": "function"
        },
        {
            "inputs": [],
            "name": "tierMultipliersDenominator",
            "outputs": [
                {
                    "internalType": "uint256",
                    "name": "",
                    "type": "uint256"
                }
            ],
            "stateMutability": "view",
            "type": "function"
        },
        {
            "inputs": [],
            "name": "totalBelugaWhale",
            "outputs": [
                {
                    "internalType": "uint256",
                    "name": "",
                    "type": "uint256"
                }
            ],
            "stateMutability": "view",
            "type": "function"
        },
        {
            "inputs": [],
            "name": "totalBlueWhale",
            "outputs": [
                {
                    "internalType": "uint256",
                    "name": "",
                    "type": "uint256"
                }
            ],
            "stateMutability": "view",
            "type": "function"
        },
        {
            "inputs": [],
            "name": "totalHumpbackWhale",
            "outputs": [
                {
                    "internalType": "uint256",
                    "name": "",
                    "type": "uint256"
                }
            ],
            "stateMutability": "view",
            "type": "function"
        },
        {
            "inputs": [],
            "name": "totalKillerWhale",
            "outputs": [
                {
                    "internalType": "uint256",
                    "name": "",
                    "type": "uint256"
                }
            ],
            "stateMutability": "view",
            "type": "function"
        },
        {
            "inputs": [
                {
                    "internalType": "uint256",
                    "name": "_id",
                    "type": "uint256"
                },
                {
                    "internalType": "address",
                    "name": "_owner",
                    "type": "address"
                },
                {
                    "internalType": "address",
                    "name": "_recipient",
                    "type": "address"
                }
            ],
            "name": "transferNode",
            "outputs": [],
            "stateMutability": "nonpayable",
            "type": "function"
        },
        {
            "inputs": [
                {
                    "internalType": "address payable",
                    "name": "adr",
                    "type": "address"
                }
            ],
            "name": "transferOwnership",
            "outputs": [],
            "stateMutability": "nonpayable",
            "type": "function"
        },
        {
            "inputs": [
                {
                    "internalType": "address",
                    "name": "adr",
                    "type": "address"
                }
            ],
            "name": "unauthorize",
            "outputs": [],
            "stateMutability": "nonpayable",
            "type": "function"
        }
    ],
    "bytecode": "670de0b6b3a7640000600290815560c060405260036080908152600560a0526200002d916007919062000243565b5060408051808201909152600c8152601460208201526200005390600990600262000243565b506040805180820190915260488152607860208201526200007990600b90600262000243565b50604080518082019091526101e081526103206020820152620000a190600d9060026200028b565b506103846011556040805160808101825261213481526125e46020820152612b5c9181019190915261319c6060820152620000e1906012906004620002c2565b50620f424060165560408051608081018252600480825260066020830152600892820192909252600a60608201526200011e9160179190620002f8565b50620f4240601b556040805160a0810182526064815260696020820152606e9181019190915260746060820152607c60808201526200016290601c9060056200032d565b5060646021556040805160a0810182526000815260046020820152600c91810191909152602a606082015260a86080820152620001a49060229060056200032d565b506029805460ff19166001179055348015620001bf57600080fd5b50604051620039df380380620039df833981016040819052620001e29162000379565b60008054336001600160a01b03199182168117835582526001602081905260408320805460ff19169091179055600382905560048290556005829055600691909155600f80549091166001600160a01b0392909216919091179055620003ab565b826002810192821562000279579160200282015b8281111562000279578251829060ff1690559160200191906001019062000257565b506200028792915062000362565b5090565b826002810192821562000279579160200282015b8281111562000279578251829061ffff169055916020019190600101906200029f565b826004810192821562000279579160200282018281111562000279578251829061ffff169055916020019190600101906200029f565b826004810192821562000279579160200282018281111562000279578251829060ff1690559160200191906001019062000257565b826005810192821562000279579160200282018281111562000279578251829060ff1690559160200191906001019062000257565b5b8082111562000287576000815560010162000363565b6000602082840312156200038c57600080fd5b81516001600160a01b0381168114620003a457600080fd5b9392505050565b61362480620003bb6000396000f3fe608060405234801561001057600080fd5b50600436106103275760003560e01c8063896fa12d116101b8578063b81c806a11610104578063dd01a0fd116100a2578063f2fde38b1161007c578063f2fde38b14610695578063f894c905146106a8578063fe0409ce146106b1578063fe9fbb80146106c457600080fd5b8063dd01a0fd1461064f578063ec988c5a14610662578063f0b37c041461068257600080fd5b8063d3ea4350116100de578063d3ea435014610603578063da9f659114610616578063db293a0c14610629578063db4658721461063c57600080fd5b8063b81c806a146105df578063cc4e9d75146105e7578063d32a929d146105f057600080fd5b8063adb5af5b11610171578063b5dcdd341161014b578063b5dcdd3414610586578063b61c8ddc14610599578063b6a5d7de146105ac578063b7b28265146105bf57600080fd5b8063adb5af5b14610557578063b07a35411461056a578063b2e925161461057d57600080fd5b8063896fa12d146104f85780638b7f46f11461050b5780638d2c2ee4146105145780639d4bf25e1461051c5780639dff3e4c1461052f578063aadc18d91461054457600080fd5b806346786031116102775780636c9382a311610230578063732bb43e1161020a578063732bb43e146104c85780637679c5c9146104d55780637bf63cdc146104dd578063821c0576146104f057600080fd5b80636c9382a3146104ae5780636ffe97f9146104b757806370c9da00146104c057600080fd5b8063467860311461044657806347b3d295146104595780635220aa4a1461046c5780635d420e5c1461047557806366666aa914610488578063673a1e8d1461049b57600080fd5b80631cfe8e7d116102e4578063328d086b116102be578063328d086b146103ed5780633bd356f61461040057806341074563146104085780634389f14f1461043357600080fd5b80631cfe8e7d1461039f5780632ac8e331146103b25780632f54bf6e146103bb57600080fd5b80630711fa5e1461032c5780630e25264f1461035257806314a5a9f414610367578063152c483414610370578063166b1759146103835780631c0da14414610396575b600080fd5b61033f61033a366004612f9c565b6106f0565b6040519081526020015b60405180910390f35b610365610360366004612fb5565b610707565b005b61033f602d5481565b61036561037e3660046130cb565b61074d565b6103656103913660046131a8565b610869565b61033f60025481565b6103656103ad3660046131a8565b61091a565b61033f60045481565b6103dd6103c93660046131ca565b6000546001600160a01b0391821691161490565b6040519015158152602001610349565b6103656103fb366004612f9c565b6109cb565b610365610aed565b600f5461041b906001600160a01b031681565b6040516001600160a01b039091168152602001610349565b6103656104413660046131a8565b610ca7565b6103656104543660046131e7565b610d54565b61033f610467366004612f9c565b610da0565b61033f60035481565b610365610483366004613222565b610db0565b60105461041b906001600160a01b031681565b61033f6104a9366004612f9c565b610e75565b61033f60065481565b61033f60055481565b610365610e85565b6029546103dd9060ff1681565b610365610ff7565b6103656104eb366004612f9c565b61116a565b61036561131c565b610365610506366004612f9c565b611370565b61033f60165481565b610365611575565b61033f61052a366004612f9c565b611682565b610537611692565b6040516103499190613254565b61033f610552366004612f9c565b6116f3565b61033f610565366004612f9c565b6117bb565b610365610578366004613298565b6117cb565b61033f60115481565b61036561059436600461333e565b611dd0565b61033f6105a7366004612f9c565b6120b4565b6103656105ba3660046131ca565b6120c4565b6105d26105cd366004612f9c565b612115565b604051610349919061343a565b61033f61221e565b61033f60215481565b61033f6105fe366004612f9c565b61224f565b61033f610611366004612f9c565b61225f565b6103656106243660046131e7565b612348565b6103656106373660046131a8565b61238f565b61036561064a366004613222565b61243e565b61036561065d366004612f9c565b6124f4565b6106756106703660046131ca565b61261d565b604051610349919061344d565b6103656106903660046131ca565b61283b565b6103656106a33660046131ca565b612886565b61033f601b5481565b61033f6106bf366004612f9c565b61291c565b6103dd6106d23660046131ca565b6001600160a01b031660009081526001602052604090205460ff1690565b6009816002811061070057600080fd5b0154905081565b6000546001600160a01b0316331461073a5760405162461bcd60e51b8152600401610731906134af565b60405180910390fd5b6029805460ff1916911515919091179055565b3360009081526001602052604090205460ff1661079a5760405162461bcd60e51b815260206004820152600b60248201526a085055551213d49256915160aa1b6044820152606401610731565b815183511480156107ac575080518251145b6107ed5760405162461bcd60e51b8152602060048201526012602482015271496e76616c696420706172616d657465727360701b6044820152606401610731565b825160005b818110156108625761085085828151811061080f5761080f6134cf565b6020026020010151858381518110610829576108296134cf565b6020026020010151858481518110610843576108436134cf565b6020026020010151611dd0565b8061085a816134fb565b9150506107f2565b5050505050565b6000546001600160a01b031633146108935760405162461bcd60e51b8152600401610731906134af565b6000821180156108a35750600081115b80156108ae57508181115b61090a5760405162461bcd60e51b815260206004820152602760248201527f496e76616c6964204b696c6c65725768616c65206d696e696d756d20616e64206044820152666d6178696d756d60c81b6064820152608401610731565b6009828155819060015b01555050565b6000546001600160a01b031633146109445760405162461bcd60e51b8152600401610731906134af565b6000821180156109545750600081115b801561095f57508181115b6109bd5760405162461bcd60e51b815260206004820152602960248201527f496e76616c69642048756d706261636b5768616c65206d696e696d756d20616e60448201526864206d6178696d756d60b81b6064820152608401610731565b600b82815581906001610914565b6000818152602860205260409020600701546001600160a01b03163314610a2c5760405162461bcd60e51b81526020600482015260156024820152744d757374206265206f776e6572206f66206e6f646560581b6044820152606401610731565b6000818152602c602052604090205460ff1615610a465750565b336000908152602b6020526040902054610a9d57602a80546001810182556000919091527fbeced09521047d05b8960b7e7bcc1d1292cf3e4b2a6b63f48335cbde5f7545d20180546001600160a01b031916331790555b336000908152602b6020908152604080832080546001818101835591855283852001859055848452602c9092528220805460ff19169091179055602d805491610ae5836134fb565b919050555050565b3360009081526027602052604090205480610b4a5760405162461bcd60e51b815260206004820152601f60248201527f4d757374206f776e206e6f64657320746f20636c61696d2072657761726473006044820152606401610731565b6000805b82811015610c3e576011543360009081526027602052604081208054602892919085908110610b7f57610b7f6134cf565b906000526020600020015481526020019081526020016000206002015442610ba79190613516565b1115610c2c573360009081526027602052604081208054602891839185908110610bd357610bd36134cf565b60009182526020808320909101548352828101939093526040918201812060010154808252602c909352205490915060ff16610c2a57610c128161225f565b610c1c908461352d565b9250610c2a8142600061292c565b505b80610c36816134fb565b915050610b4e565b50600f54604051627e2d2d60e51b8152336004820152602481018390526001600160a01b0390911690630fc5a5a0906044015b600060405180830381600087803b158015610c8b57600080fd5b505af1158015610c9f573d6000803e3d6000fd5b505050505050565b6000546001600160a01b03163314610cd15760405162461bcd60e51b8152600401610731906134af565b600082118015610ce15750600081115b8015610cec57508181115b610d465760405162461bcd60e51b815260206004820152602560248201527f496e76616c696420426c75655768616c65206d696e696d756d20616e64206d6160448201526478696d756d60d81b6064820152608401610731565b600d82815581906001610914565b6000546001600160a01b03163314610d7e5760405162461bcd60e51b8152600401610731906134af565b601c858155601d859055601e849055601f839055819060045b01555050505050565b601c816005811061070057600080fd5b6000546001600160a01b03163314610dda5760405162461bcd60e51b8152600401610731906134af565b600084118015610dea5750600083115b8015610df65750600082115b8015610e025750600081115b610e595760405162461bcd60e51b815260206004820152602260248201527f496e746572657374206d7573742062652067726561746572207468616e207a65604482015261726f60f01b6064820152608401610731565b601284815560138490556014839055819060035b015550505050565b6017816004811061070057600080fd5b3360009081526027602052604090205480610ee25760405162461bcd60e51b815260206004820152601f60248201527f4d757374206f776e206e6f64657320746f20636c61696d2072657761726473006044820152606401610731565b6000805b82811015610fbf576011543360009081526027602052604081208054602892919085908110610f1757610f176134cf565b906000526020600020015481526020019081526020016000206002015442610f3f9190613516565b1115610fad573360009081526027602052604081208054602891839185908110610f6b57610f6b6134cf565b90600052602060002001548152602001908152602001600020600101549050610f938161225f565b610f9d908461352d565b9250610fab8142600161292c565b505b80610fb7816134fb565b915050610ee6565b50600f5460405163fe9c777f60e01b8152336004820152602481018390526001600160a01b039091169063fe9c777f90604401610c71565b336000908152602b60208181526040808420805460278452919094209290915281549092611026929091612e54565b50336000908152602b60205260409020548181116110865760405162461bcd60e51b815260206004820152601c60248201527f4e6f206e6f64657320616464656420746f20636f6d706f756e646572000000006044820152606401610731565b816110ce57602a80546001810182556000919091527fbeced09521047d05b8960b7e7bcc1d1292cf3e4b2a6b63f48335cbde5f7545d20180546001600160a01b031916331790555b60005b8181101561114557336000908152602b602052604081208054600192602c92909185908110611102576111026134cf565b9060005260206000200154815260200190815260200160002060006101000a81548160ff021916908315150217905550808061113d906134fb565b9150506110d1565b506111508282613516565b602d6000828254611161919061352d565b90915550505050565b6000818152602c602052604090205460ff16156111c95760405162461bcd60e51b815260206004820181905260248201527f4e6f64652063616e6e6f7420626520696e206175746f636f6d706f756e6465726044820152606401610731565b60006111d482612115565b90508060e001516001600160a01b0316336001600160a01b03161461123b5760405162461bcd60e51b815260206004820152601e60248201527f4d757374206265206f776e6572206f66206e6f646520746f20636c61696d00006044820152606401610731565b601154604082015161124d9042613516565b116112905760405162461bcd60e51b81526020600482015260136024820152722737b2329034b99037b71031b7b7b63237bbb760691b6044820152606401610731565b600061129f826020015161225f565b90506112ad8342600061292c565b600f5460e0830151604051627e2d2d60e51b81526001600160a01b03918216600482015260248101849052911690630fc5a5a0906044015b600060405180830381600087803b1580156112ff57600080fd5b505af1158015611313573d6000803e3d6000fd5b50505050505050565b602a5460005b8181101561136c5761135a602a8281548110611340576113406134cf565b6000918252602090912001546001600160a01b03166129e6565b80611364816134fb565b915050611322565b5050565b6000818152602860205260409020600701546001600160a01b031633146113d15760405162461bcd60e51b81526020600482015260156024820152744d757374206265206f776e6572206f66206e6f646560581b6044820152606401610731565b6000818152602c602052604090205460ff1661142f5760405162461bcd60e51b815260206004820152601a60248201527f4e6f6465206d75737420626520696e20636f6d706f756e6465720000000000006044820152606401610731565b336000908152602b6020526040812054905b8181101561152e57336000908152602b6020526040902080548491908390811061146d5761146d6134cf565b9060005260206000200154141561151c57336000908152602b60205260409020611498600184613516565b815481106114a8576114a86134cf565b6000918252602080832090910154338352602b90915260409091208054839081106114d5576114d56134cf565b6000918252602080832090910192909255338152602b9091526040902080548061150157611501613545565b6001900381819060005260206000200160009055905561152e565b80611526816134fb565b915050611441565b506000828152602c60205260408120805460ff19169055602d8054916115538361355b565b9091555050336000908152602b602052604090205461136c5761136c33612b80565b336000908152602b6020526040902054806115d25760405162461bcd60e51b815260206004820152601b60248201527f4e6f206e6f6465732061626c6520746f2062652072656d6f76656400000000006044820152606401610731565b60005b8181101561164657336000908152602b602052604081208054602c91839185908110611603576116036134cf565b9060005260206000200154815260200190815260200160002060006101000a81548160ff021916908315150217905550808061163e906134fb565b9150506115d5565b50336000908152602b6020526040812061165f91612ea4565b61166833612b80565b80602d600082825461167a9190613516565b909155505050565b6007816002811061070057600080fd5b336000908152602b60209081526040918290208054835181840281018401909452808452606093928301828280156116e957602002820191906000526020600020905b8154815260200190600101908083116116d5575b5050505050905090565b6000806116ff83612115565b9050601654601282608001516004811061171b5761171b6134cf565b0154826060015161172c9190613572565b6117369190613591565b602154601c8360a0015160058110611750576117506134cf565b0154601b54601785608001516004811061176c5761176c6134cf565b01548560c0015186606001516117829190613572565b61178c9190613572565b6117969190613591565b6117a09190613572565b6117aa9190613591565b6117b4919061352d565b9392505050565b600d816002811061070057600080fd5b60295460ff1661181d5760405162461bcd60e51b815260206004820152601860248201527f4e6f6465206d696e74696e672069732064697361626c656400000000000000006044820152606401610731565b60038111156118655760405162461bcd60e51b8152602060048201526014602482015273139bd919481d1e5c19481a5cc81a5b9d985b1a5960621b6044820152606401610731565b600061187084612c8c565b9050601061187d85612c8c565b1115801561188b5750600081115b6118d05760405162461bcd60e51b815260206004820152601660248201527514dd1c9a5b99c81b985b59481a5cc81a5b9d985b1a5960521b6044820152606401610731565b60006118da61221e565b6118e590600161352d565b90506118ef612ec5565b836119e0576002546007546119049190613572565b8510158015611922575060025460085461191e9190613572565b8511155b6119805760405162461bcd60e51b815260206004820152602960248201527f42656c7567615768616c6520616d6f756e74206f757473696465206f662076616044820152686c69642072616e676560b81b6064820152608401610731565b6040518061010001604052808781526020018381526020014281526020018681526020018581526020016000815260200160008152602001336001600160a01b03168152509050600360008154809291906119da906134fb565b91905055505b8360011415611ad9576002546009546119f99190613572565b8510158015611a175750600254600a54611a139190613572565b8511155b611a755760405162461bcd60e51b815260206004820152602960248201527f4b696c6c65725768616c6520616d6f756e74206f757473696465206f662076616044820152686c69642072616e676560b81b6064820152608401610731565b6040518061010001604052808781526020018381526020014281526020018681526020018581526020016000815260200160008152602001336001600160a01b0316815250905060046000815480929190611acf906134fb565b9190505550611cbd565b8360021415611bca57600254600b54611af29190613572565b8510158015611b105750600254600c54611b0c9190613572565b8511155b611b705760405162461bcd60e51b815260206004820152602b60248201527f48756d706261636b5768616c6520616d6f756e74206f757473696465206f662060448201526a76616c69642072616e676560a81b6064820152608401610731565b6040518061010001604052808781526020018381526020014281526020018681526020018581526020016000815260200160008152602001336001600160a01b0316815250905060056000815480929190611acf906134fb565b8360031415611cbd57600254600d54611be39190613572565b8510158015611c015750600254600e54611bfd9190613572565b8511155b611c5d5760405162461bcd60e51b815260206004820152602760248201527f426c75655768616c6520616d6f756e74206f757473696465206f662076616c69604482015266642072616e676560c81b6064820152608401610731565b6040518061010001604052808781526020018381526020014281526020018681526020018581526020016000815260200160008152602001336001600160a01b0316815250905060066000815480929190611cb7906134fb565b91905055505b6000828152602860209081526040909120825180518493611ce2928492910190612f13565b50602082810151600183810191909155604080850151600285015560608501516003850155608085015160048086019190915560a0860151600586015560c0860151600686015560e090950151600790940180546001600160a01b0319166001600160a01b039586161790553360008181526027855282812080549485018155815293909320909101869055600f5490516326e5710760e01b8152938401919091526024830188905216906326e5710790604401600060405180830381600087803b158015611db057600080fd5b505af1158015611dc4573d6000803e3d6000fd5b50505050505050505050565b3360009081526001602052604090205460ff16611e1d5760405162461bcd60e51b815260206004820152600b60248201526a085055551213d49256915160aa1b6044820152606401610731565b806001600160a01b0316826001600160a01b03161415611e7f5760405162461bcd60e51b815260206004820152601760248201527f43616e6e6f74207472616e7366657220746f2073656c660000000000000000006044820152606401610731565b6000838152602c602052604090205460ff1615611eec5760405162461bcd60e51b815260206004820152602560248201527f556e61626c6520746f207472616e73666572206e6f646520696e20636f6d706f6044820152643ab73232b960d91b6064820152608401610731565b6001600160a01b03821660009081526027602052604081205490805b82811015612074576001600160a01b0385166000908152602760205260409020805487919083908110611f3d57611f3d6134cf565b90600052602060002001541415612062576001600160a01b0385166000908152602760205260409020611f71600185613516565b81548110611f8157611f816134cf565b906000526020600020015460276000876001600160a01b03166001600160a01b031681526020019081526020016000208281548110611fc257611fc26134cf565b60009182526020808320909101929092556001600160a01b0387168152602790915260409020805480611ff757611ff7613545565b6000828152602080822083016000199081018390559092019092556001600160a01b038616808352602782526040808420805460018181018355918652848620018b90558a8552602890935290922060070180546001600160a01b0319169092179091559150612074565b8061206c816134fb565b915050611f08565b50806108625760405162461bcd60e51b815260206004820152600f60248201526e151c985b9cd9995c8819985a5b1959608a1b6044820152606401610731565b600b816002811061070057600080fd5b6000546001600160a01b031633146120ee5760405162461bcd60e51b8152600401610731906134af565b6001600160a01b03166000908152600160208190526040909120805460ff19169091179055565b61211d612ec5565b6000828152602860205260409081902081516101008101909252805482908290612146906135b3565b80601f0160208091040260200160405190810160405280929190818152602001828054612172906135b3565b80156121bf5780601f10612194576101008083540402835291602001916121bf565b820191906000526020600020905b8154815290600101906020018083116121a257829003601f168201915b505050918352505060018201546020820152600282015460408201526003820154606082015260048201546080820152600582015460a0820152600682015460c08201526007909101546001600160a01b031660e09091015292915050565b6000600654600554600454600354612236919061352d565b612240919061352d565b61224a919061352d565b905090565b6012816004811061070057600080fd5b60008061226b83612115565b9050620151808160400151426122819190613516565b601654601284608001516004811061229b5761229b6134cf565b015484606001516122ac9190613572565b6122b69190613591565b602154601c8560a00151600581106122d0576122d06134cf565b0154601b5460178760800151600481106122ec576122ec6134cf565b01548760c0015188606001516123029190613572565b61230c9190613572565b6123169190613591565b6123209190613572565b61232a9190613591565b612334919061352d565b61233e9190613572565b6117b49190613591565b6000546001600160a01b031633146123725760405162461bcd60e51b8152600401610731906134af565b602285815560238590556024849055602583905581906004610d97565b6000546001600160a01b031633146123b95760405162461bcd60e51b8152600401610731906134af565b6000821180156123c95750600081115b80156123d457508181115b6124305760405162461bcd60e51b815260206004820152602760248201527f496e76616c69642042656c7567615768616c65206d696e696d756d20616e64206044820152666d6178696d756d60c81b6064820152608401610731565b600782815581906001610914565b6000546001600160a01b031633146124685760405162461bcd60e51b8152600401610731906134af565b6000841180156124785750600083115b80156124845750600082115b80156124905750600081115b6124dc5760405162461bcd60e51b815260206004820152601f60248201527f426f6f7374206d7573742062652067726561746572207468616e207a65726f006044820152606401610731565b60178481556018849055601983905581906003610e6d565b60006124ff82612115565b90508060e001516001600160a01b0316336001600160a01b0316146125705760405162461bcd60e51b815260206004820152602160248201527f4d757374206265206f776e6572206f66206e6f646520746f20636f6d706f756e6044820152601960fa1b6064820152608401610731565b60115460408201516125829042613516565b116125c55760405162461bcd60e51b81526020600482015260136024820152722737b2329034b99037b71031b7b7b63237bbb760691b6044820152606401610731565b60006125d4826020015161225f565b90506125e6826020015142600161292c565b600f5460405163fe9c777f60e01b8152336004820152602481018390526001600160a01b039091169063fe9c777f906044016112e5565b6001600160a01b038116600090815260276020908152604080832080548251818502810185019093528083526060949383018282801561267c57602002820191906000526020600020905b815481526020019060010190808311612668575b505050505090506000815167ffffffffffffffff81111561269f5761269f612fd7565b6040519080825280602002602001820160405280156126d857816020015b6126c5612ec5565b8152602001906001900390816126bd5790505b50905060005b825181101561283357602860008483815181106126fd576126fd6134cf565b602002602001015181526020019081526020016000206040518061010001604052908160008201805461272f906135b3565b80601f016020809104026020016040519081016040528092919081815260200182805461275b906135b3565b80156127a85780601f1061277d576101008083540402835291602001916127a8565b820191906000526020600020905b81548152906001019060200180831161278b57829003601f168201915b505050918352505060018201546020820152600282015460408201526003820154606082015260048201546080820152600582015460a0820152600682015460c08201526007909101546001600160a01b031660e0909101528251839083908110612815576128156134cf565b6020026020010181905250808061282b906134fb565b9150506126de565b509392505050565b6000546001600160a01b031633146128655760405162461bcd60e51b8152600401610731906134af565b6001600160a01b03166000908152600160205260409020805460ff19169055565b6000546001600160a01b031633146128b05760405162461bcd60e51b8152600401610731906134af565b600080546001600160a01b0319166001600160a01b038316908117825580825260016020818152604093849020805460ff191690921790915591519081527f04dba622d284ed0014ee4b9a6a68386be1a4c08a4913ae272de89199cc686163910160405180910390a150565b6022816005811061070057600080fd5b6000838152602860205260409020600201829055801561299e57602654600084815260286020526040902060060154141561296857600061296b565b60015b60ff16602860008581526020019081526020016000206006016000828254612993919061352d565b909155506129b19050565b6000838152602860205260408120600601555b6000838152602860205260409020600601546129cc90612dc9565b600093845260286020526040909320600501929092555050565b6001600160a01b0381166000908152602b6020908152604080832080548251818502810185019093528083529192909190830182828015612a4657602002820191906000526020600020905b815481526020019060010190808311612a32575b505050505090506000808251905060005b81811015612b0c5760115460286000868481518110612a7857612a786134cf565b602002602001015181526020019081526020016000206002015442612a9d9190613516565b1115612afa57600060286000868481518110612abb57612abb6134cf565b60200260200101518152602001908152602001600020600101549050612ae08161225f565b612aea908561352d565b9350612af88142600161292c565b505b80612b04816134fb565b915050612a57565b508115612b7a57600f5460405163fe9c777f60e01b81526001600160a01b038681166004830152602482018590529091169063fe9c777f90604401600060405180830381600087803b158015612b6157600080fd5b505af1158015612b75573d6000803e3d6000fd5b505050505b50505050565b602a5460005b81811015612c8757826001600160a01b0316602a8281548110612bab57612bab6134cf565b6000918252602090912001546001600160a01b03161415612c7557602a612bd3600184613516565b81548110612be357612be36134cf565b600091825260209091200154602a80546001600160a01b039092169183908110612c0f57612c0f6134cf565b9060005260206000200160006101000a8154816001600160a01b0302191690836001600160a01b03160217905550602a805480612c4e57612c4e613545565b600082815260209020810160001990810180546001600160a01b0319169055019055505050565b80612c7f816134fb565b915050612b86565b505050565b600080825b8051821015612dc2576007818381518110612cae57612cae6134cf565b01602001516001600160f81b031990811690911c16612cd957612cd260018361352d565b9150612db0565b8051600360f91b90600590839085908110612cf657612cf66134cf565b01602001516001600160f81b031990811690911c161415612d1c57612cd260028361352d565b8051600760f91b90600490839085908110612d3957612d396134cf565b01602001516001600160f81b031990811690911c161415612d5f57612cd260038361352d565b8051600f60f91b90600390839085908110612d7c57612d7c6134cf565b01602001516001600160f81b031990811690911c161415612da257612cd260048361352d565b612dad60018361352d565b91505b82612dba816134fb565b935050612c91565b5050919050565b6022546000908210801590612ddf575060235482105b15612dec57506000919050565b6023548210801590612dff575060245482105b15612e0c57506001919050565b6024548210801590612e1f575060255482105b15612e2c57506002919050565b6025548210801590612e3f575060265482105b15612e4c57506003919050565b506004919050565b828054828255906000526020600020908101928215612e945760005260206000209182015b82811115612e94578254825591600101919060010190612e79565b50612ea0929150612f87565b5090565b5080546000825590600052602060002090810190612ec29190612f87565b50565b6040518061010001604052806060815260200160008152602001600081526020016000815260200160008152602001600081526020016000815260200160006001600160a01b031681525090565b828054612f1f906135b3565b90600052602060002090601f016020900481019282612f415760008555612e94565b82601f10612f5a57805160ff1916838001178555612e94565b82800160010185558215612e94579182015b82811115612e94578251825591602001919060010190612f6c565b5b80821115612ea05760008155600101612f88565b600060208284031215612fae57600080fd5b5035919050565b600060208284031215612fc757600080fd5b813580151581146117b457600080fd5b634e487b7160e01b600052604160045260246000fd5b604051601f8201601f1916810167ffffffffffffffff8111828210171561301657613016612fd7565b604052919050565b600067ffffffffffffffff82111561303857613038612fd7565b5060051b60200190565b6001600160a01b0381168114612ec257600080fd5b600082601f83011261306857600080fd5b8135602061307d6130788361301e565b612fed565b82815260059290921b8401810191818101908684111561309c57600080fd5b8286015b848110156130c05780356130b381613042565b83529183019183016130a0565b509695505050505050565b6000806000606084860312156130e057600080fd5b833567ffffffffffffffff808211156130f857600080fd5b818601915086601f83011261310c57600080fd5b8135602061311c6130788361301e565b82815260059290921b8401810191818101908a84111561313b57600080fd5b948201945b8386101561315957853582529482019490820190613140565b9750508701359250508082111561316f57600080fd5b61317b87838801613057565b9350604086013591508082111561319157600080fd5b5061319e86828701613057565b9150509250925092565b600080604083850312156131bb57600080fd5b50508035926020909101359150565b6000602082840312156131dc57600080fd5b81356117b481613042565b600080600080600060a086880312156131ff57600080fd5b505083359560208501359550604085013594606081013594506080013592509050565b6000806000806080858703121561323857600080fd5b5050823594602084013594506040840135936060013592509050565b6020808252825182820181905260009190848201906040850190845b8181101561328c57835183529284019291840191600101613270565b50909695505050505050565b6000806000606084860312156132ad57600080fd5b833567ffffffffffffffff808211156132c557600080fd5b818601915086601f8301126132d957600080fd5b81356020828211156132ed576132ed612fd7565b6132ff601f8301601f19168201612fed565b9250818352888183860101111561331557600080fd5b818185018285013760009183018101919091529097908601359650604090950135949350505050565b60008060006060848603121561335357600080fd5b83359250602084013561336581613042565b9150604084013561337581613042565b809150509250925092565b6000610100825181855280518083870152600092505b808310156133b857602083830101516101208488010152602083019250613396565b808311156133cb57600061012082880101525b6020850151602087015260408501516040870152606085015160608701526080850151608087015260a085015160a087015260c085015160c087015260e0850151925061342360e08701846001600160a01b03169052565b601f01601f19169490940161012001949350505050565b6020815260006117b46020830184613380565b6000602080830181845280855180835260408601915060408160051b870101925083870160005b828110156134a257603f19888603018452613490858351613380565b94509285019290850190600101613474565b5092979650505050505050565b60208082526006908201526510a7aba722a960d11b604082015260600190565b634e487b7160e01b600052603260045260246000fd5b634e487b7160e01b600052601160045260246000fd5b600060001982141561350f5761350f6134e5565b5060010190565b600082821015613528576135286134e5565b500390565b60008219821115613540576135406134e5565b500190565b634e487b7160e01b600052603160045260246000fd5b60008161356a5761356a6134e5565b506000190190565b600081600019048311821515161561358c5761358c6134e5565b500290565b6000826135ae57634e487b7160e01b600052601260045260246000fd5b500490565b600181811c908216806135c757607f821691505b602082108114156135e857634e487b7160e01b600052602260045260246000fd5b5091905056fea26469706673582212204e8f11efefb34cbc23fc262f02c400147c767d4c35e18e6e337bea6f461d69b464736f6c634300080b0033",
    "sourcePath": "/home/kryptomind/Documents/HardHat/ETHWhales/contracts/EtherstonesRewardManager.sol",
    "compiler": {
        "name": "solc",
        "version": "0.8.11+commit.d7f03943"
    },
    "functionHashes": {
        "ETHSDecimals()": "1c0da144",
        "addAllToCompounder()": "7679c5c9",
        "addToCompounder(uint256)": "328d086b",
        "authorize(address)": "b6a5d7de",
        "autoCompound()": "821c0576",
        "baseCompoundBoost(uint256)": "673a1e8d",
        "baseCompoundBoostDenominator()": "f894c905",
        "baseNodeDailyInterest(uint256)": "d32a929d",
        "calculateRewards(uint256)": "d3ea4350",
        "claimAllAvailableEtherstoneReward()": "3bd356f6",
        "claimEtherstoneReward(uint256)": "7bf63cdc",
        "compoundAllAvailableEtherstoneReward()": "70c9da00",
        "compoundEtherstoneReward(uint256)": "dd01a0fd",
        "ethsToken()": "41074563",
        "getDailyNodeEmission(uint256)": "aadc18d9",
        "getEtherstoneNodeById(uint256)": "b7b28265",
        "getNumberOfNodes()": "b81c806a",
        "getOwnedNodes(address)": "ec988c5a",
        "getOwnedNodesInCompounder()": "9dff3e4c",
        "isAuthorized(address)": "fe9fbb80",
        "isOwner(address)": "2f54bf6e",
        "massTransferNodes(uint256[],address[],address[])": "152c4834",
        "minMaxBelugaWhale(uint256)": "9d4bf25e",
        "minMaxBlueWhale(uint256)": "adb5af5b",
        "minMaxHumpbackWhale(uint256)": "b61c8ddc",
        "minMaxKillerWhale(uint256)": "0711fa5e",
        "mintNode(string,uint256,uint256)": "b07a3541",
        "nodeCooldown()": "b2e92516",
        "nodeDailyInterestDenominator()": "8b7f46f1",
        "nodeMintingEnabled()": "732bb43e",
        "numNodesInCompounder()": "14a5a9f4",
        "removeAllFromCompounder()": "8d2c2ee4",
        "removeFromCompounder(uint256)": "896fa12d",
        "rewardPool()": "66666aa9",
        "setBaseCompoundBoost(uint256,uint256,uint256,uint256)": "db465872",
        "setBaseDailyNodeInterest(uint256,uint256,uint256,uint256)": "5d420e5c",
        "setBelugaWhaleMinMax(uint256,uint256)": "db293a0c",
        "setBlueWhaleMinMax(uint256,uint256)": "4389f14f",
        "setHumpbackWhaleMinMax(uint256,uint256)": "1cfe8e7d",
        "setKillerWhaleMinMax(uint256,uint256)": "166b1759",
        "setNodeMintingEnabled(bool)": "0e25264f",
        "setTierCompoundTimes(uint256,uint256,uint256,uint256,uint256)": "da9f6591",
        "setTierMultipliers(uint256,uint256,uint256,uint256,uint256)": "46786031",
        "tierCompoundTimes(uint256)": "fe0409ce",
        "tierMultipliers(uint256)": "47b3d295",
        "tierMultipliersDenominator()": "cc4e9d75",
        "totalBelugaWhale()": "5220aa4a",
        "totalBlueWhale()": "6c9382a3",
        "totalHumpbackWhale()": "6ffe97f9",
        "totalKillerWhale()": "2ac8e331",
        "transferNode(uint256,address,address)": "b5dcdd34",
        "transferOwnership(address)": "f2fde38b",
        "unauthorize(address)": "f0b37c04"
    },
    "gasEstimates": {
        "creation": {
            "codeDepositCost": "2772000",
            "executionCost": "infinite",
            "totalCost": "infinite"
        },
        "external": {
            "ETHSDecimals()": "2441",
            "addAllToCompounder()": "infinite",
            "addToCompounder(uint256)": "150388",
            "authorize(address)": "26867",
            "autoCompound()": "infinite",
            "baseCompoundBoost(uint256)": "2563",
            "baseCompoundBoostDenominator()": "2372",
            "baseNodeDailyInterest(uint256)": "2519",
            "calculateRewards(uint256)": "infinite",
            "claimAllAvailableEtherstoneReward()": "infinite",
            "claimEtherstoneReward(uint256)": "infinite",
            "compoundAllAvailableEtherstoneReward()": "infinite",
            "compoundEtherstoneReward(uint256)": "infinite",
            "ethsToken()": "2449",
            "getDailyNodeEmission(uint256)": "infinite",
            "getEtherstoneNodeById(uint256)": "infinite",
            "getNumberOfNodes()": "infinite",
            "getOwnedNodes(address)": "infinite",
            "getOwnedNodesInCompounder()": "infinite",
            "isAuthorized(address)": "2675",
            "isOwner(address)": "2599",
            "massTransferNodes(uint256[],address[],address[])": "infinite",
            "minMaxBelugaWhale(uint256)": "2519",
            "minMaxBlueWhale(uint256)": "2475",
            "minMaxHumpbackWhale(uint256)": "2496",
            "minMaxKillerWhale(uint256)": "2454",
            "mintNode(string,uint256,uint256)": "infinite",
            "nodeCooldown()": "2396",
            "nodeDailyInterestDenominator()": "2352",
            "nodeMintingEnabled()": "2377",
            "numNodesInCompounder()": "2375",
            "removeAllFromCompounder()": "infinite",
            "removeFromCompounder(uint256)": "infinite",
            "rewardPool()": "2471",
            "setBaseCompoundBoost(uint256,uint256,uint256,uint256)": "91129",
            "setBaseDailyNodeInterest(uint256,uint256,uint256,uint256)": "91097",
            "setBelugaWhaleMinMax(uint256,uint256)": "46817",
            "setBlueWhaleMinMax(uint256,uint256)": "46840",
            "setHumpbackWhaleMinMax(uint256,uint256)": "46775",
            "setKillerWhaleMinMax(uint256,uint256)": "46830",
            "setNodeMintingEnabled(bool)": "26703",
            "setTierCompoundTimes(uint256,uint256,uint256,uint256,uint256)": "113100",
            "setTierMultipliers(uint256,uint256,uint256,uint256,uint256)": "113046",
            "tierCompoundTimes(uint256)": "2517",
            "tierMultipliers(uint256)": "2475",
            "tierMultipliersDenominator()": "2374",
            "totalBelugaWhale()": "2374",
            "totalBlueWhale()": "2352",
            "totalHumpbackWhale()": "2374",
            "totalKillerWhale()": "2375",
            "transferNode(uint256,address,address)": "infinite",
            "transferOwnership(address)": "52123",
            "unauthorize(address)": "26849"
        },
        "internal": {
            "compoundAllForUserInCompounder(address)": "infinite",
            "getTierByCompoundTimes(uint256)": "17068",
            "removeCompounderUser(address)": "infinite",
            "updateNodeInteraction(uint256,uint256,bool)": "92376",
            "utfStringLength(string memory)": "infinite"
        }
    }
}