{
    "contractName": "ETHSToken",
    "abi": [
        {
            "inputs": [],
            "stateMutability": "nonpayable",
            "type": "constructor"
        },
        {
            "anonymous": false,
            "inputs": [
                {
                    "indexed": true,
                    "internalType": "address",
                    "name": "owner",
                    "type": "address"
                },
                {
                    "indexed": true,
                    "internalType": "address",
                    "name": "spender",
                    "type": "address"
                },
                {
                    "indexed": false,
                    "internalType": "uint256",
                    "name": "value",
                    "type": "uint256"
                }
            ],
            "name": "Approval",
            "type": "event"
        },
        {
            "anonymous": false,
            "inputs": [
                {
                    "indexed": false,
                    "internalType": "uint256",
                    "name": "amountAVAX",
                    "type": "uint256"
                },
                {
                    "indexed": false,
                    "internalType": "uint256",
                    "name": "amountBOG",
                    "type": "uint256"
                }
            ],
            "name": "AutoLiquify",
            "type": "event"
        },
        {
            "anonymous": false,
            "inputs": [
                {
                    "indexed": false,
                    "internalType": "address",
                    "name": "owner",
                    "type": "address"
                }
            ],
            "name": "OwnershipTransferred",
            "type": "event"
        },
        {
            "anonymous": false,
            "inputs": [
                {
                    "indexed": true,
                    "internalType": "address",
                    "name": "from",
                    "type": "address"
                },
                {
                    "indexed": true,
                    "internalType": "address",
                    "name": "to",
                    "type": "address"
                },
                {
                    "indexed": false,
                    "internalType": "uint256",
                    "name": "value",
                    "type": "uint256"
                }
            ],
            "name": "Transfer",
            "type": "event"
        },
        {
            "inputs": [],
            "name": "MASK",
            "outputs": [
                {
                    "internalType": "uint256",
                    "name": "",
                    "type": "uint256"
                }
            ],
            "stateMutability": "view",
            "type": "function"
        },
        {
            "inputs": [],
            "name": "WAVAX",
            "outputs": [
                {
                    "internalType": "address",
                    "name": "",
                    "type": "address"
                }
            ],
            "stateMutability": "view",
            "type": "function"
        },
        {
            "inputs": [],
            "name": "_maxTxAmount",
            "outputs": [
                {
                    "internalType": "uint256",
                    "name": "",
                    "type": "uint256"
                }
            ],
            "stateMutability": "view",
            "type": "function"
        },
        {
            "inputs": [],
            "name": "_maxWallet",
            "outputs": [
                {
                    "internalType": "uint256",
                    "name": "",
                    "type": "uint256"
                }
            ],
            "stateMutability": "view",
            "type": "function"
        },
        {
            "inputs": [
                {
                    "internalType": "address",
                    "name": "holder",
                    "type": "address"
                },
                {
                    "internalType": "address",
                    "name": "spender",
                    "type": "address"
                }
            ],
            "name": "allowance",
            "outputs": [
                {
                    "internalType": "uint256",
                    "name": "",
                    "type": "uint256"
                }
            ],
            "stateMutability": "view",
            "type": "function"
        },
        {
            "inputs": [
                {
                    "internalType": "address",
                    "name": "spender",
                    "type": "address"
                },
                {
                    "internalType": "uint256",
                    "name": "amount",
                    "type": "uint256"
                }
            ],
            "name": "approve",
            "outputs": [
                {
                    "internalType": "bool",
                    "name": "",
                    "type": "bool"
                }
            ],
            "stateMutability": "nonpayable",
            "type": "function"
        },
        {
            "inputs": [
                {
                    "internalType": "address",
                    "name": "adr",
                    "type": "address"
                }
            ],
            "name": "authorize",
            "outputs": [],
            "stateMutability": "nonpayable",
            "type": "function"
        },
        {
            "inputs": [
                {
                    "internalType": "address",
                    "name": "account",
                    "type": "address"
                }
            ],
            "name": "balanceOf",
            "outputs": [
                {
                    "internalType": "uint256",
                    "name": "",
                    "type": "uint256"
                }
            ],
            "stateMutability": "view",
            "type": "function"
        },
        {
            "inputs": [],
            "name": "charityCollected",
            "outputs": [
                {
                    "internalType": "uint256",
                    "name": "",
                    "type": "uint256"
                }
            ],
            "stateMutability": "view",
            "type": "function"
        },
        {
            "inputs": [],
            "name": "charityWallet",
            "outputs": [
                {
                    "internalType": "address",
                    "name": "",
                    "type": "address"
                }
            ],
            "stateMutability": "view",
            "type": "function"
        },
        {
            "inputs": [],
            "name": "decimals",
            "outputs": [
                {
                    "internalType": "uint8",
                    "name": "",
                    "type": "uint8"
                }
            ],
            "stateMutability": "pure",
            "type": "function"
        },
        {
            "inputs": [],
            "name": "distributorAddress",
            "outputs": [
                {
                    "internalType": "address",
                    "name": "",
                    "type": "address"
                }
            ],
            "stateMutability": "view",
            "type": "function"
        },
        {
            "inputs": [],
            "name": "enableLaunch",
            "outputs": [],
            "stateMutability": "nonpayable",
            "type": "function"
        },
        {
            "inputs": [],
            "name": "getCirculatingSupply",
            "outputs": [
                {
                    "internalType": "uint256",
                    "name": "",
                    "type": "uint256"
                }
            ],
            "stateMutability": "view",
            "type": "function"
        },
        {
            "inputs": [],
            "name": "getOwner",
            "outputs": [
                {
                    "internalType": "address",
                    "name": "",
                    "type": "address"
                }
            ],
            "stateMutability": "view",
            "type": "function"
        },
        {
            "inputs": [],
            "name": "getPersonalAmountInVault",
            "outputs": [
                {
                    "internalType": "uint256",
                    "name": "",
                    "type": "uint256"
                }
            ],
            "stateMutability": "view",
            "type": "function"
        },
        {
            "inputs": [],
            "name": "getPersonalVaultCooldown",
            "outputs": [
                {
                    "internalType": "uint256",
                    "name": "",
                    "type": "uint256"
                }
            ],
            "stateMutability": "view",
            "type": "function"
        },
        {
            "inputs": [],
            "name": "initiateLaunchTaxes",
            "outputs": [],
            "stateMutability": "nonpayable",
            "type": "function"
        },
        {
            "inputs": [
                {
                    "internalType": "address",
                    "name": "adr",
                    "type": "address"
                }
            ],
            "name": "isAuthorized",
            "outputs": [
                {
                    "internalType": "bool",
                    "name": "",
                    "type": "bool"
                }
            ],
            "stateMutability": "view",
            "type": "function"
        },
        {
            "inputs": [
                {
                    "internalType": "address",
                    "name": "account",
                    "type": "address"
                }
            ],
            "name": "isOwner",
            "outputs": [
                {
                    "internalType": "bool",
                    "name": "",
                    "type": "bool"
                }
            ],
            "stateMutability": "view",
            "type": "function"
        },
        {
            "inputs": [],
            "name": "launchEndTime",
            "outputs": [
                {
                    "internalType": "uint256",
                    "name": "",
                    "type": "uint256"
                }
            ],
            "stateMutability": "view",
            "type": "function"
        },
        {
            "inputs": [],
            "name": "launchStartTime",
            "outputs": [
                {
                    "internalType": "uint256",
                    "name": "",
                    "type": "uint256"
                }
            ],
            "stateMutability": "view",
            "type": "function"
        },
        {
            "inputs": [],
            "name": "liquidityFee",
            "outputs": [
                {
                    "internalType": "uint256",
                    "name": "",
                    "type": "uint256"
                }
            ],
            "stateMutability": "view",
            "type": "function"
        },
        {
            "inputs": [],
            "name": "liquidityFeeReceiver",
            "outputs": [
                {
                    "internalType": "address",
                    "name": "",
                    "type": "address"
                }
            ],
            "stateMutability": "view",
            "type": "function"
        },
        {
            "inputs": [
                {
                    "internalType": "address",
                    "name": "",
                    "type": "address"
                }
            ],
            "name": "localVaultCooldowns",
            "outputs": [
                {
                    "internalType": "uint256",
                    "name": "",
                    "type": "uint256"
                }
            ],
            "stateMutability": "view",
            "type": "function"
        },
        {
            "inputs": [],
            "name": "marketingFeeReceiver",
            "outputs": [
                {
                    "internalType": "address",
                    "name": "",
                    "type": "address"
                }
            ],
            "stateMutability": "view",
            "type": "function"
        },
        {
            "inputs": [],
            "name": "marketingTax",
            "outputs": [
                {
                    "internalType": "uint256",
                    "name": "",
                    "type": "uint256"
                }
            ],
            "stateMutability": "view",
            "type": "function"
        },
        {
            "inputs": [
                {
                    "internalType": "address",
                    "name": "user",
                    "type": "address"
                },
                {
                    "internalType": "uint256",
                    "name": "amount",
                    "type": "uint256"
                }
            ],
            "name": "mintUser",
            "outputs": [],
            "stateMutability": "nonpayable",
            "type": "function"
        },
        {
            "inputs": [],
            "name": "name",
            "outputs": [
                {
                    "internalType": "string",
                    "name": "",
                    "type": "string"
                }
            ],
            "stateMutability": "pure",
            "type": "function"
        },
        {
            "inputs": [
                {
                    "internalType": "address",
                    "name": "recipient",
                    "type": "address"
                },
                {
                    "internalType": "uint256",
                    "name": "amount",
                    "type": "uint256"
                }
            ],
            "name": "nodeClaimTransfer",
            "outputs": [],
            "stateMutability": "nonpayable",
            "type": "function"
        },
        {
            "inputs": [
                {
                    "internalType": "address",
                    "name": "sender",
                    "type": "address"
                },
                {
                    "internalType": "uint256",
                    "name": "amount",
                    "type": "uint256"
                }
            ],
            "name": "nodeMintTransfer",
            "outputs": [],
            "stateMutability": "nonpayable",
            "type": "function"
        },
        {
            "inputs": [],
            "name": "pair",
            "outputs": [
                {
                    "internalType": "address",
                    "name": "",
                    "type": "address"
                }
            ],
            "stateMutability": "view",
            "type": "function"
        },
        {
            "inputs": [],
            "name": "rewardManager",
            "outputs": [
                {
                    "internalType": "contract EtherstonesRewardManager",
                    "name": "",
                    "type": "address"
                }
            ],
            "stateMutability": "view",
            "type": "function"
        },
        {
            "inputs": [],
            "name": "rewardPool",
            "outputs": [
                {
                    "internalType": "address",
                    "name": "",
                    "type": "address"
                }
            ],
            "stateMutability": "view",
            "type": "function"
        },
        {
            "inputs": [],
            "name": "router",
            "outputs": [
                {
                    "internalType": "contract IDEXRouter",
                    "name": "",
                    "type": "address"
                }
            ],
            "stateMutability": "view",
            "type": "function"
        },
        {
            "inputs": [
                {
                    "internalType": "address",
                    "name": "_user",
                    "type": "address"
                },
                {
                    "internalType": "bool",
                    "name": "_decision",
                    "type": "bool"
                }
            ],
            "name": "setBlacklistUser",
            "outputs": [],
            "stateMutability": "nonpayable",
            "type": "function"
        },
        {
            "inputs": [
                {
                    "internalType": "address",
                    "name": "_rewardManager",
                    "type": "address"
                }
            ],
            "name": "setEtherstonesRewardManager",
            "outputs": [],
            "stateMutability": "nonpayable",
            "type": "function"
        },
        {
            "inputs": [
                {
                    "internalType": "address",
                    "name": "_liquidityFeeReceiver",
                    "type": "address"
                },
                {
                    "internalType": "address",
                    "name": "_marketingFeeReceiver",
                    "type": "address"
                },
                {
                    "internalType": "address",
                    "name": "_treasuryFeeReceiver",
                    "type": "address"
                }
            ],
            "name": "setFeeReceivers",
            "outputs": [],
            "stateMutability": "nonpayable",
            "type": "function"
        },
        {
            "inputs": [
                {
                    "internalType": "bool",
                    "name": "_inSwap",
                    "type": "bool"
                }
            ],
            "name": "setInSwap",
            "outputs": [],
            "stateMutability": "nonpayable",
            "type": "function"
        },
        {
            "inputs": [
                {
                    "internalType": "address",
                    "name": "holder",
                    "type": "address"
                },
                {
                    "internalType": "bool",
                    "name": "exempt",
                    "type": "bool"
                }
            ],
            "name": "setIsFeeExempt",
            "outputs": [],
            "stateMutability": "nonpayable",
            "type": "function"
        },
        {
            "inputs": [
                {
                    "internalType": "address",
                    "name": "holder",
                    "type": "address"
                },
                {
                    "internalType": "bool",
                    "name": "exempt",
                    "type": "bool"
                }
            ],
            "name": "setIsTxLimitExempt",
            "outputs": [],
            "stateMutability": "nonpayable",
            "type": "function"
        },
        {
            "inputs": [
                {
                    "internalType": "address",
                    "name": "_pair",
                    "type": "address"
                },
                {
                    "internalType": "bool",
                    "name": "_enabled",
                    "type": "bool"
                }
            ],
            "name": "setLpPair",
            "outputs": [],
            "stateMutability": "nonpayable",
            "type": "function"
        },
        {
            "inputs": [
                {
                    "internalType": "uint256",
                    "name": "amount",
                    "type": "uint256"
                }
            ],
            "name": "setMaxWallet",
            "outputs": [],
            "stateMutability": "nonpayable",
            "type": "function"
        },
        {
            "inputs": [
                {
                    "internalType": "address",
                    "name": "holder",
                    "type": "address"
                },
                {
                    "internalType": "bool",
                    "name": "exempt",
                    "type": "bool"
                }
            ],
            "name": "setMaxWalletExempt",
            "outputs": [],
            "stateMutability": "nonpayable",
            "type": "function"
        },
        {
            "inputs": [
                {
                    "internalType": "uint256",
                    "name": "_sellFee",
                    "type": "uint256"
                },
                {
                    "internalType": "uint256",
                    "name": "_sellFeeDenominator",
                    "type": "uint256"
                }
            ],
            "name": "setSellFees",
            "outputs": [],
            "stateMutability": "nonpayable",
            "type": "function"
        },
        {
            "inputs": [
                {
                    "internalType": "uint256",
                    "name": "_swapInterval",
                    "type": "uint256"
                },
                {
                    "internalType": "uint256",
                    "name": "_swapThreshold",
                    "type": "uint256"
                }
            ],
            "name": "setSwapBackSettings",
            "outputs": [],
            "stateMutability": "nonpayable",
            "type": "function"
        },
        {
            "inputs": [
                {
                    "internalType": "uint256",
                    "name": "_sniperCooldown",
                    "type": "uint256"
                }
            ],
            "name": "setTransferEnabled",
            "outputs": [],
            "stateMutability": "nonpayable",
            "type": "function"
        },
        {
            "inputs": [
                {
                    "internalType": "uint256",
                    "name": "amount",
                    "type": "uint256"
                }
            ],
            "name": "setTxLimit",
            "outputs": [],
            "stateMutability": "nonpayable",
            "type": "function"
        },
        {
            "inputs": [
                {
                    "internalType": "uint256",
                    "name": "_claimFeeDenominator",
                    "type": "uint256"
                },
                {
                    "internalType": "uint256",
                    "name": "_compoundFeeDenominator",
                    "type": "uint256"
                },
                {
                    "internalType": "uint256",
                    "name": "_vaultDepositFeeDenominator",
                    "type": "uint256"
                },
                {
                    "internalType": "uint256",
                    "name": "_vaultWithdrawFeeDenominator",
                    "type": "uint256"
                }
            ],
            "name": "setVaultFees",
            "outputs": [],
            "stateMutability": "nonpayable",
            "type": "function"
        },
        {
            "inputs": [
                {
                    "internalType": "uint256",
                    "name": "_minDistribution",
                    "type": "uint256"
                }
            ],
            "name": "setVaultMinDistribution",
            "outputs": [],
            "stateMutability": "nonpayable",
            "type": "function"
        },
        {
            "inputs": [
                {
                    "internalType": "uint256",
                    "name": "_vaultWithdrawCooldown",
                    "type": "uint256"
                }
            ],
            "name": "setVaultWithdrawCooldown",
            "outputs": [],
            "stateMutability": "nonpayable",
            "type": "function"
        },
        {
            "inputs": [
                {
                    "internalType": "uint256",
                    "name": "_liquidityFee",
                    "type": "uint256"
                },
                {
                    "internalType": "uint256",
                    "name": "_reflectionFee",
                    "type": "uint256"
                },
                {
                    "internalType": "uint256",
                    "name": "_marketingFee",
                    "type": "uint256"
                },
                {
                    "internalType": "uint256",
                    "name": "_treasuryFee",
                    "type": "uint256"
                }
            ],
            "name": "setWalletFees",
            "outputs": [],
            "stateMutability": "nonpayable",
            "type": "function"
        },
        {
            "inputs": [],
            "name": "symbol",
            "outputs": [
                {
                    "internalType": "string",
                    "name": "",
                    "type": "string"
                }
            ],
            "stateMutability": "pure",
            "type": "function"
        },
        {
            "inputs": [],
            "name": "tokenAddress",
            "outputs": [
                {
                    "internalType": "address",
                    "name": "",
                    "type": "address"
                }
            ],
            "stateMutability": "view",
            "type": "function"
        },
        {
            "inputs": [],
            "name": "totalCompoundedFromNode",
            "outputs": [
                {
                    "internalType": "uint256",
                    "name": "",
                    "type": "uint256"
                }
            ],
            "stateMutability": "view",
            "type": "function"
        },
        {
            "inputs": [],
            "name": "totalLocked",
            "outputs": [
                {
                    "internalType": "uint256",
                    "name": "",
                    "type": "uint256"
                }
            ],
            "stateMutability": "view",
            "type": "function"
        },
        {
            "inputs": [],
            "name": "totalSupply",
            "outputs": [
                {
                    "internalType": "uint256",
                    "name": "",
                    "type": "uint256"
                }
            ],
            "stateMutability": "view",
            "type": "function"
        },
        {
            "inputs": [
                {
                    "internalType": "address",
                    "name": "recipient",
                    "type": "address"
                },
                {
                    "internalType": "uint256",
                    "name": "amount",
                    "type": "uint256"
                }
            ],
            "name": "transfer",
            "outputs": [
                {
                    "internalType": "bool",
                    "name": "",
                    "type": "bool"
                }
            ],
            "stateMutability": "nonpayable",
            "type": "function"
        },
        {
            "inputs": [
                {
                    "internalType": "address",
                    "name": "sender",
                    "type": "address"
                },
                {
                    "internalType": "address",
                    "name": "recipient",
                    "type": "address"
                },
                {
                    "internalType": "uint256",
                    "name": "amount",
                    "type": "uint256"
                }
            ],
            "name": "transferFrom",
            "outputs": [
                {
                    "internalType": "bool",
                    "name": "",
                    "type": "bool"
                }
            ],
            "stateMutability": "nonpayable",
            "type": "function"
        },
        {
            "inputs": [
                {
                    "internalType": "address payable",
                    "name": "adr",
                    "type": "address"
                }
            ],
            "name": "transferOwnership",
            "outputs": [],
            "stateMutability": "nonpayable",
            "type": "function"
        },
        {
            "inputs": [],
            "name": "treasuryFeeReceiver",
            "outputs": [
                {
                    "internalType": "address",
                    "name": "",
                    "type": "address"
                }
            ],
            "stateMutability": "view",
            "type": "function"
        },
        {
            "inputs": [],
            "name": "treasuryTax",
            "outputs": [
                {
                    "internalType": "uint256",
                    "name": "",
                    "type": "uint256"
                }
            ],
            "stateMutability": "view",
            "type": "function"
        },
        {
            "inputs": [
                {
                    "internalType": "address",
                    "name": "adr",
                    "type": "address"
                }
            ],
            "name": "unauthorize",
            "outputs": [],
            "stateMutability": "nonpayable",
            "type": "function"
        },
        {
            "inputs": [
                {
                    "internalType": "address",
                    "name": "sender",
                    "type": "address"
                },
                {
                    "internalType": "uint256",
                    "name": "amount",
                    "type": "uint256"
                }
            ],
            "name": "vaultCompoundFromNode",
            "outputs": [],
            "stateMutability": "nonpayable",
            "type": "function"
        },
        {
            "inputs": [
                {
                    "internalType": "address",
                    "name": "sender",
                    "type": "address"
                },
                {
                    "internalType": "uint256",
                    "name": "amount",
                    "type": "uint256"
                }
            ],
            "name": "vaultDepositNoFees",
            "outputs": [],
            "stateMutability": "nonpayable",
            "type": "function"
        },
        {
            "inputs": [
                {
                    "internalType": "uint256",
                    "name": "amount",
                    "type": "uint256"
                }
            ],
            "name": "vaultDepositTransfer",
            "outputs": [],
            "stateMutability": "nonpayable",
            "type": "function"
        },
        {
            "inputs": [
                {
                    "internalType": "uint256",
                    "name": "amount",
                    "type": "uint256"
                }
            ],
            "name": "vaultWithdrawTransfer",
            "outputs": [],
            "stateMutability": "nonpayable",
            "type": "function"
        },
        {
            "stateMutability": "payable",
            "type": "receive"
        }
    ],
    "bytecode": "6080604052600280546001600160a01b031990811661dead90811790925560078054821690921790915560088054909116731d308089a2d1ced3f1ce36b1fcaf815b07217be3179055620000566012600a62000972565b6200006590624c4b406200098a565b600955620000766012600a62000972565b62000084906109c46200098a565b600a556012600a62000097919062000972565b620000a5906127106200098a565b600b90815560006014819055601581905560168190556108c06017556101186018819055601955610af0601a556109c4601b819055601c55612710601d819055601e819055601f82905560205561064060215560229190915560646023819055602491909155600a602581905560268190556005602755604b602855602991909155610384602a55602b80546001600160a01b03199081167395818f22ed28cb353164c7bb2e8f6b24e377d2ce17909155602c80548216739d12687d1cc9b648904ed837983c51d68be25656179055602d8054821673ca06bdc6f917fef701c1d6c9f084cfa74962ad2a179055600254602e805483166001600160a01b039290921691821790556032805490921617905542603355603c603455620001cd9060129062000972565b620001da9060026200098a565b6035556036805460ff19169055603b80546001600160a01b03191673199032b89ebb35d7ada146ecfc2fb50295fb52be1790556000603c819055603d553480156200022457600080fd5b5060008054336001600160a01b031991821681178355825260016020818152604093849020805460ff1916909217909155602f805473adcbe444619de95aedd82245d0b422288b27c895931683179055825163c45a015560e01b815292516000199363c45a01559260048083019391928290030181865afa158015620002ae573d6000803e3d6000fd5b505050506040513d601f19601f82011682018060405250810190620002d49190620009ac565b6008546040516364e329cb60e11b81526001600160a01b03918216600482015230602482015291169063c9c65396906044016020604051808303816000875af115801562000326573d6000803e3d6000fd5b505050506040513d601f19601f820116820180604052508101906200034c9190620009ac565b603080546001600160a01b0319166001600160a01b03928316179055306000818152600d60209081526040808320602f8054871685529252918290208590555490519216916200039c906200084f565b6001600160a01b03928316815291166020820152604001604051809103906000f080158015620003d0573d6000803e3d6000fd5b50603180546001600160a01b039283166001600160a01b03199182168117909255603280549091169091179055336000818152600e60209081526040808320805460ff1990811660019081179092553085528285208054821683179055602d8054881686528386208054831684179055602b8054891687528487208054841685179055878752600f8652848720805484168517905554881686528386208054831684179055602c54881686528386208054831684179055548716855282852080548216831790556030805488168652601085528386208054831684179055602f8054891687528487208054841685179055905488168652601390945291909320805490911690921790915554620004e992168362000612565b6928a857425466f8000000603c819055696910faca7ca62aaa0000906200051390600a90620009d7565b600954620005229190620009fa565b6200052e9190620009fa565b6009819055336000818152600c6020908152604080832085905551938452919290916000805160206200574f833981519152910160405180910390a3602d54603c54620005979133916001600160a01b03909116906200059190600a90620009d7565b6200073e565b50602e54603c54620005e49133916001600160a01b0390911690600a90620005c19060086200098a565b620005cd9190620009d7565b62000591906a024655cc78b38d7ac0000062000a14565b50602b546200060a9033906001600160a01b03166a0115cae590c8ce1f5600006200073e565b505062000a2f565b6001600160a01b0383166200067a5760405162461bcd60e51b8152602060048201526024808201527f45524332303a20617070726f76652066726f6d20746865207a65726f206164646044820152637265737360e01b60648201526084015b60405180910390fd5b6001600160a01b038216620006dd5760405162461bcd60e51b815260206004820152602260248201527f45524332303a20617070726f766520746f20746865207a65726f206164647265604482015261737360f01b606482015260840162000671565b6001600160a01b038381166000818152600d602090815260408083209487168084529482529182902085905590518481527f8c5be1e5ebec7d5bd14f71427d1e84f3dd0314c0f7b2291e5b200ac8c7c3b925910160405180910390a3505050565b6001600160a01b0383166000908152600c6020526040812054821115620007a85760405162461bcd60e51b815260206004820152601d60248201527f4e6f7420656e6f75676820746f6b656e7320746f207472616e73666572000000604482015260640162000671565b6001600160a01b0384166000908152600c602052604081208054849290620007d2908490620009fa565b90915550506001600160a01b0383166000908152600c6020526040812080548492906200080190849062000a14565b92505081905550826001600160a01b0316846001600160a01b03166000805160206200574f833981519152846040516200083d91815260200190565b60405180910390a35060019392505050565b611414806200433b83390190565b634e487b7160e01b600052601160045260246000fd5b600181815b80851115620008b45781600019048211156200089857620008986200085d565b80851615620008a657918102915b93841c939080029062000878565b509250929050565b600082620008cd575060016200096c565b81620008dc575060006200096c565b8160018114620008f55760028114620009005762000920565b60019150506200096c565b60ff8411156200091457620009146200085d565b50506001821b6200096c565b5060208310610133831016604e8410600b841016171562000945575081810a6200096c565b62000951838362000873565b80600019048211156200096857620009686200085d565b0290505b92915050565b60006200098360ff841683620008bc565b9392505050565b6000816000190483118215151615620009a757620009a76200085d565b500290565b600060208284031215620009bf57600080fd5b81516001600160a01b03811681146200098357600080fd5b600082620009f557634e487b7160e01b600052601260045260246000fd5b500490565b60008282101562000a0f5762000a0f6200085d565b500390565b6000821982111562000a2a5762000a2a6200085d565b500190565b6138fc8062000a3f6000396000f3fe6080604052600436106103e85760003560e01c80637bb501ec11610208578063b6a5d7de11610118578063ecfeb5ba116100ab578063f84ba65d1161007a578063f84ba65d14610be3578063f887ea4014610c03578063fe9c777f14610c23578063fe9fbb8014610c43578063ff5211bb14610c7c57600080fd5b8063ecfeb5ba14610b6d578063ef67b51b14610b83578063f0b37c0414610ba3578063f2fde38b14610bc357600080fd5b8063d7c01032116100e7578063d7c0103214610ac3578063dd62ed3e14610ae3578063e91f214e14610b29578063e96fada214610b4d57600080fd5b8063b6a5d7de14610a4e578063b7b31c9c14610a6e578063bfa21d6a14610a8e578063d3f04e4b14610aae57600080fd5b806398118cb41161019b5780639fd8234e1161016a5780639fd8234e146109ae578063a51af4c5146109ce578063a8aa1b31146109ee578063a9059cbb14610a0e578063af8d82d514610a2e57600080fd5b806398118cb4146109435780639814f40f146109595780639d76ea58146109795780639e71f0741461099957600080fd5b8063893d20e8116101d7578063893d20e8146108b85780638b951bbc146108d65780638bdb38e2146108f657806395d89b411461091657600080fd5b80637bb501ec146108565780637d1db4a51461086c57806380c581d11461088257806382247ec0146108a257600080fd5b80632f54bf6e116103035780635c85974f116102965780636a688334116102655780636a688334146107a057806370a08231146107c057806373b295c2146107f65780637537ccb6146108165780637b2087691461083657600080fd5b80635c85974f146107205780635d0044ca14610740578063658d4b7f1461076057806366666aa91461078057600080fd5b8063468ef67c116102d2578063468ef67c146106b457806349a433a2146106d457806356891412146106ea5780635acc1d3b1461070057600080fd5b80632f54bf6e1461061c578063313ce5671461064b5780634073bd9114610667578063465e21681461069457600080fd5b806318160ddd1161037b57806326e571071161034a57806326e57107146105a75780632af10fac146105c75780632b112e49146105e75780632f00d568146105fc57600080fd5b806318160ddd1461053a5780631d2cb02d1461054f57806321a46d881461056557806323b872dd1461058757600080fd5b80630eaf0b49116103b75780630eaf0b49146104ac5780630f4ef8a6146104c25780630fc5a5a0146104fa57806317ae84a31461051a57600080fd5b806301beb787146103f457806303c447c41461041657806306fdde031461043f578063095ea7b31461047c57600080fd5b366103ef57005b600080fd5b34801561040057600080fd5b5061041461040f366004613479565b610c91565b005b34801561042257600080fd5b5061042c60145481565b6040519081526020015b60405180910390f35b34801561044b57600080fd5b5060408051808201909152600b81526a45746865725768616c657360a81b60208201525b604051610436919061349b565b34801561048857600080fd5b5061049c610497366004613508565b610ccf565b6040519015158152602001610436565b3480156104b857600080fd5b5061042c603d5481565b3480156104ce57600080fd5b506006546104e2906001600160a01b031681565b6040516001600160a01b039091168152602001610436565b34801561050657600080fd5b50610414610515366004613508565b610d3b565b34801561052657600080fd5b50610414610535366004613534565b610e51565b34801561054657600080fd5b5060095461042c565b34801561055b57600080fd5b5061042c60055481565b34801561057157600080fd5b503360009081526011602052604090205461042c565b34801561059357600080fd5b5061049c6105a236600461354d565b610e80565b3480156105b357600080fd5b506104146105c2366004613508565b610f15565b3480156105d357600080fd5b50602d546104e2906001600160a01b031681565b3480156105f357600080fd5b5061042c611026565b34801561060857600080fd5b5061041461061736600461358e565b611053565b34801561062857600080fd5b5061049c6106373660046135c0565b6000546001600160a01b0391821691161490565b34801561065757600080fd5b5060405160128152602001610436565b34801561067357600080fd5b5061042c6106823660046135c0565b60126020526000908152604090205481565b3480156106a057600080fd5b506104146106af366004613508565b6110ba565b3480156106c057600080fd5b506104146106cf366004613534565b61113f565b3480156106e057600080fd5b5061042c603f5481565b3480156106f657600080fd5b5061042c603c5481565b34801561070c57600080fd5b5061041461071b3660046135f2565b6112ff565b34801561072c57600080fd5b5061041461073b366004613534565b611354565b34801561074c57600080fd5b5061041461075b366004613534565b611399565b34801561076c57600080fd5b5061041461077b3660046135f2565b6113de565b34801561078c57600080fd5b50602e546104e2906001600160a01b031681565b3480156107ac57600080fd5b506104146107bb366004613534565b611433565b3480156107cc57600080fd5b5061042c6107db3660046135c0565b6001600160a01b03166000908152600c602052604090205490565b34801561080257600080fd5b506008546104e2906001600160a01b031681565b34801561082257600080fd5b506104146108313660046135f2565b61147a565b34801561084257600080fd5b50603b546104e2906001600160a01b031681565b34801561086257600080fd5b5061042c603e5481565b34801561087857600080fd5b5061042c600a5481565b34801561088e57600080fd5b5061041461089d3660046135f2565b6114cf565b3480156108ae57600080fd5b5061042c600b5481565b3480156108c457600080fd5b506000546001600160a01b03166104e2565b3480156108e257600080fd5b506104146108f1366004613534565b611524565b34801561090257600080fd5b50610414610911366004613508565b611753565b34801561092257600080fd5b506040805180820190915260048152634554485760e01b602082015261046f565b34801561094f57600080fd5b5061042c60165481565b34801561096557600080fd5b5061041461097436600461358e565b61180c565b34801561098557600080fd5b506003546104e2906001600160a01b031681565b3480156109a557600080fd5b506104146118ed565b3480156109ba57600080fd5b506104146109c9366004613479565b61192f565b3480156109da57600080fd5b506032546104e2906001600160a01b031681565b3480156109fa57600080fd5b506030546104e2906001600160a01b031681565b348015610a1a57600080fd5b5061049c610a29366004613508565b6119bd565b348015610a3a57600080fd5b50610414610a493660046135c0565b6119ca565b348015610a5a57600080fd5b50610414610a693660046135c0565b611aa7565b348015610a7a57600080fd5b50610414610a89366004613627565b611af8565b348015610a9a57600080fd5b50602b546104e2906001600160a01b031681565b348015610aba57600080fd5b5061042c611b22565b348015610acf57600080fd5b50610414610ade366004613642565b611b40565b348015610aef57600080fd5b5061042c610afe36600461368d565b6001600160a01b039182166000908152600d6020908152604080832093909416825291909152205490565b348015610b3557600080fd5b5061042c6fffffffffffffffffffffffffffffffff81565b348015610b5957600080fd5b50602c546104e2906001600160a01b031681565b348015610b7957600080fd5b5061042c60045481565b348015610b8f57600080fd5b50610414610b9e366004613534565b611ba9565b348015610baf57600080fd5b50610414610bbe3660046135c0565b611c34565b348015610bcf57600080fd5b50610414610bde3660046135c0565b611c7f565b348015610bef57600080fd5b50610414610bfe3660046135f2565b611d15565b348015610c0f57600080fd5b50602f546104e2906001600160a01b031681565b348015610c2f57600080fd5b50610414610c3e366004613508565b611d6a565b348015610c4f57600080fd5b5061049c610c5e3660046135c0565b6001600160a01b031660009081526001602052604090205460ff1690565b348015610c8857600080fd5b50610414611f35565b6000546001600160a01b03163314610cc45760405162461bcd60e51b8152600401610cbb906136c6565b60405180910390fd5b603491909155603555565b336000818152600d602090815260408083206001600160a01b038716808552925280832085905551919290917f8c5be1e5ebec7d5bd14f71427d1e84f3dd0314c0f7b2291e5b200ac8c7c3b92590610d2a9086815260200190565b60405180910390a350600192915050565b6007546001600160a01b03163314610d5257600080fd5b60008111610da25760405162461bcd60e51b815260206004820152601960248201527f43616e6e6f7420636c61696d207a65726f2072657761726473000000000000006044820152606401610cbb565b6000601d54601c5483610db591906136fc565b610dbf919061371b565b610dc9908361373d565b601d54909150610dda8360646136fc565b610de4919061371b565b60156000828254610df59190613754565b9091555050601d54610e088360646136fc565b610e12919061371b565b60146000828254610e239190613754565b9091555050602e54610e3f906001600160a01b03163084611f77565b50610e4b308483611f77565b50505050565b6000546001600160a01b03163314610e7b5760405162461bcd60e51b8152600401610cbb906136c6565b602a55565b6001600160a01b0383166000908152600d6020908152604080832033845290915281205460001914610f00576001600160a01b0384166000908152600d60209081526040808320338452909152902054610edb90839061373d565b6001600160a01b0385166000908152600d602090815260408083203384529091529020555b610f0b848484612080565b90505b9392505050565b6007546001600160a01b03163314610f2c57600080fd5b600060295460255483610f3f91906136fc565b610f49919061371b565b9050600060295460265484610f5e91906136fc565b610f68919061371b565b9050600060295460285485610f7d91906136fc565b610f87919061371b565b9050600060295460275486610f9c91906136fc565b610fa6919061371b565b9050610fb3863087611f77565b50602e54610fcc9030906001600160a01b031684611f77565b508260046000828254610fdf9190613754565b925050819055508060056000828254610ff89190613754565b90915550611007905084612560565b84603c60008282546110199190613754565b9091555050505050505050565b602e546001600160a01b03166000908152600c602052604081205460095461104e919061373d565b905090565b6000546001600160a01b0316331461107d5760405162461bcd60e51b8152600401610cbb906136c6565b6016849055601783905560198290556018819055808261109d8587613754565b6110a79190613754565b6110b19190613754565b601a5550505050565b6000546001600160a01b031633146110e45760405162461bcd60e51b8152600401610cbb906136c6565b3360009081526001602052604090205460ff166111315760405162461bcd60e51b815260206004820152600b60248201526a085055551213d49256915160aa1b6044820152606401610cbb565b61113b82826125c6565b5050565b61114a333083611f77565b50336000908152601260205260408120429055601e541561118e57601e54601b5461117590846136fc565b61117f919061371b565b611189908361373d565b611190565b815b9050600081116112005760405162461bcd60e51b815260206004820152603560248201527f43616e6e6f74206465706f736974206f7220636f6d706f756e64207a65726f206044820152741d1bdad95b9cc81a5b9d1bc81d1a19481d985d5b1d605a1b6064820152608401610cbb565b336000908152601160205260408120805483929061121f908490613754565b9091555050601e546112328360646136fc565b61123c919061371b565b6015600082825461124d9190613754565b9091555050601e546112608360646136fc565b61126a919061371b565b6014600082825461127b9190613754565b90915550506031543360008181526011602052604090819020549051630a5b654b60e11b8152600481019290925260248201526001600160a01b03909116906314b6ca96906044015b600060405180830381600087803b1580156112de57600080fd5b505af11580156112f2573d6000803e3d6000fd5b5050505061113b81612560565b6000546001600160a01b031633146113295760405162461bcd60e51b8152600401610cbb906136c6565b6001600160a01b03919091166000908152603a60205260409020805460ff1916911515919091179055565b6000546001600160a01b0316331461137e5760405162461bcd60e51b8152600401610cbb906136c6565b68056bc75e2d6310000081101561139457600080fd5b600a55565b6000546001600160a01b031633146113c35760405162461bcd60e51b8152600401610cbb906136c6565b68056bc75e2d631000008110156113d957600080fd5b600b55565b6000546001600160a01b031633146114085760405162461bcd60e51b8152600401610cbb906136c6565b6001600160a01b03919091166000908152600e60205260409020805460ff1916911515919091179055565b6000546001600160a01b0316331461145d5760405162461bcd60e51b8152600401610cbb906136c6565b6036805460ff191660011790556114748142613754565b60375550565b6000546001600160a01b031633146114a45760405162461bcd60e51b8152600401610cbb906136c6565b6001600160a01b03919091166000908152601060205260409020805460ff1916911515919091179055565b6000546001600160a01b031633146114f95760405162461bcd60e51b8152600401610cbb906136c6565b6001600160a01b03919091166000908152601360205260409020805460ff1916911515919091179055565b602a5433600090815260126020526040902054611541904261373d565b1161158e5760405162461bcd60e51b815260206004820152601a60248201527f5769746864726177696e67206973206f6e20636f6f6c646f776e0000000000006044820152606401610cbb565b336000908152601160205260409020548111156115f95760405162461bcd60e51b815260206004820152602360248201527f43616e6e6f74207769746864726177206d6f7265207468616e206465706f73696044820152621d195960ea1b6064820152608401610cbb565b6000601f5460001461162e57601f54601a5461161590846136fc565b61161f919061371b565b611629908361373d565b611630565b815b9050600081116116955760405162461bcd60e51b815260206004820152602a60248201527f43616e6e6f74207769746864726177207a65726f20746f6b656e732066726f6d604482015269081d1a19481d985d5b1d60b21b6064820152608401610cbb565b33600090815260116020526040812080548492906116b490849061373d565b90915550506031543360008181526011602052604090819020549051630a5b654b60e11b8152600481019290925260248201526001600160a01b03909116906314b6ca9690604401600060405180830381600087803b15801561171657600080fd5b505af115801561172a573d6000803e3d6000fd5b5050505061173833826125c6565b601f541561113b5761113b3061174e838561373d565b6125c6565b6032546001600160a01b0316331461176a57600080fd5b6000811161178a5760405162461bcd60e51b8152600401610cbb9061376c565b611795823083611f77565b506001600160a01b038216600090815260116020526040812080548392906117be908490613754565b90915550506031546001600160a01b0383811660008181526011602052604090819020549051630a5b654b60e11b8152600481019290925260248201529116906314b6ca96906044016112c4565b6000546001600160a01b031633146118365760405162461bcd60e51b8152600401610cbb906136c6565b601d54601a546118479060036136fc565b1080156118625750602054601a546118609060036136fc565b105b801561187b575081601a54600361187991906136fc565b105b8015611894575080601a54600361189291906136fc565b105b6118d95760405162461bcd60e51b8152602060048201526016602482015275466565732063616e6e6f74206578636565642033332560501b6044820152606401610cbb565b601d93909355602091909155601e55601f55565b6000546001600160a01b031633146119175760405162461bcd60e51b8152600401610cbb906136c6565b42603881905561192a9062093a80613754565b603955565b6000546001600160a01b031633146119595760405162461bcd60e51b8152600401610cbb906136c6565b806119658360036136fc565b106119b25760405162461bcd60e51b815260206004820152601f60248201527f53656c6c20666565206d757374206265206c6f776572207468616e20333325006044820152606401610cbb565b602291909155602355565b6000610f0e338484612080565b6000546001600160a01b031633146119f45760405162461bcd60e51b8152600401610cbb906136c6565b6001600160a01b038116611a4a5760405162461bcd60e51b815260206004820152601960248201527f526577617264204d616e61676572206d757374206578697374000000000000006044820152606401610cbb565b6001600160a01b03166000818152600e602090815260408083208054600160ff199182168117909255600f909352922080549091169091179055600680546001600160a01b03199081168317909155600780549091169091179055565b6000546001600160a01b03163314611ad15760405162461bcd60e51b8152600401610cbb906136c6565b6001600160a01b03166000908152600160208190526040909120805460ff19169091179055565b6032546001600160a01b03163314611b0f57600080fd5b6040805460ff1916911515919091179055565b602a5433600090815260126020526040812054909161104e91613754565b6000546001600160a01b03163314611b6a5760405162461bcd60e51b8152600401610cbb906136c6565b602b80546001600160a01b039485166001600160a01b031991821617909155602c805493851693821693909317909255602d8054919093169116179055565b6000546001600160a01b03163314611bd35760405162461bcd60e51b8152600401610cbb906136c6565b603154604051635117196160e01b8152600481018390526001600160a01b0390911690635117196190602401600060405180830381600087803b158015611c1957600080fd5b505af1158015611c2d573d6000803e3d6000fd5b5050505050565b6000546001600160a01b03163314611c5e5760405162461bcd60e51b8152600401610cbb906136c6565b6001600160a01b03166000908152600160205260409020805460ff19169055565b6000546001600160a01b03163314611ca95760405162461bcd60e51b8152600401610cbb906136c6565b600080546001600160a01b0319166001600160a01b038316908117825580825260016020818152604093849020805460ff191690921790915591519081527f04dba622d284ed0014ee4b9a6a68386be1a4c08a4913ae272de89199cc686163910160405180910390a150565b6000546001600160a01b03163314611d3f5760405162461bcd60e51b8152600401610cbb906136c6565b6001600160a01b03919091166000908152600f60205260409020805460ff1916911515919091179055565b6007546001600160a01b03163314611d8157600080fd5b60008111611da15760405162461bcd60e51b8152600401610cbb9061376c565b602e54611db8906001600160a01b03163083611f77565b506001600160a01b0382166000908152601260205260408120429055601e5415611e0557602054602154611dec90846136fc565b611df6919061371b565b611e00908361373d565b611e07565b815b6001600160a01b038416600090815260116020526040812080549293508392909190611e34908490613754565b9250508190555080603d6000828254611e4d9190613754565b90915550506031546001600160a01b0384811660008181526011602052604090819020549051630a5b654b60e11b8152600481019290925260248201529116906314b6ca9690604401600060405180830381600087803b158015611eb057600080fd5b505af1158015611ec4573d6000803e3d6000fd5b50505050602054826064611ed891906136fc565b611ee2919061371b565b60156000828254611ef39190613754565b9091555050602054611f068360646136fc565b611f10919061371b565b60146000828254611f219190613754565b90915550611f30905081612560565b505050565b6000546001600160a01b03163314611f5f5760405162461bcd60e51b8152600401610cbb906136c6565b42603e819055611f72906201518061263f565b603f55565b6001600160a01b0383166000908152600c6020526040812054821115611fdf5760405162461bcd60e51b815260206004820152601d60248201527f4e6f7420656e6f75676820746f6b656e7320746f207472616e736665720000006044820152606401610cbb565b6001600160a01b0384166000908152600c60205260408120805484929061200790849061373d565b90915550506001600160a01b0383166000908152600c602052604081208054849290612034908490613754565b92505081905550826001600160a01b0316846001600160a01b03166000805160206138a78339815191528460405161206e91815260200190565b60405180910390a35060019392505050565b60006001600160a01b038416158015906120a257506001600160a01b03831615155b6121025760405162461bcd60e51b815260206004820152602b60248201527f4572726f723a207472616e7366657220746f206f722066726f6d20746865207a60448201526a65726f206164647265737360a81b6064820152608401610cbb565b600082116121645760405162461bcd60e51b815260206004820152602960248201527f5472616e7366657220616d6f756e74206d7573742062652067726561746572206044820152687468616e207a65726f60b81b6064820152608401610cbb565b6001600160a01b0384166000908152603a602052604090205460ff16156121c55760405162461bcd60e51b815260206004820152601560248201527414d95b99195c881a5cc8189b1858dadb1a5cdd1959605a1b6044820152606401610cbb565b60405460ff16156121e2576121db848484611f77565b9050610f0e565b6121ec848461264b565b156123f05760365460ff166122435760405162461bcd60e51b815260206004820152601760248201527f4c6971756964697479206e6f74207965742061646465640000000000000000006044820152606401610cbb565b4260375411156122855760405162461bcd60e51b815260206004820152600d60248201526c14db9a5c195c8818d85d59da1d609a1b6044820152606401610cbb565b6001600160a01b03841660009081526013602052604090205460ff16806122c457506001600160a01b03831660009081526013602052604090205460ff165b1561231b57600a5482111561231b5760405162461bcd60e51b815260206004820152601a60248201527f5472616e73616374696f6e204c696d69742045786365656465640000000000006044820152606401610cbb565b602f546001600160a01b0384811691161480159061235257506001600160a01b03831660009081526013602052604090205460ff16155b801561237757506001600160a01b03831660009081526010602052604090205460ff16155b156123f057600b546001600160a01b0384166000908152600c60205260409020546123a3908490613754565b106123f05760405162461bcd60e51b815260206004820152601d60248201527f4d61782077616c6c657420686173206265656e207472696767657265640000006044820152606401610cbb565b6001600160a01b038416600090815260136020526040902054829060ff1661245b5761241a61271f565b156124275761242761278e565b6001600160a01b0385166000908152600e602052604090205460ff161561244e5782612458565b612458858461324b565b90505b6001600160a01b0385166000908152600c60205260409020548311156124b75760405162461bcd60e51b81526020600482015260116024820152704e6f7420656e6f75676820746f6b656e7360781b6044820152606401610cbb565b6001600160a01b0385166000908152600c60205260409020546124db90849061373d565b6001600160a01b038087166000908152600c6020526040808220939093559086168152205461250b908290613754565b6001600160a01b038086166000818152600c602052604090819020939093559151908716906000805160206138a78339815191529061254d9085815260200190565b60405180910390a3506001949350505050565b306000908152600c60205260408120805483929061257f90849061373d565b925050819055508060096000828254612598919061373d565b909155505060405181815260009030906000805160206138a78339815191529060200160405180910390a350565b6001600160a01b0382166000908152600c6020526040812080548392906125ee908490613754565b9250508190555080600960008282546126079190613754565b90915550506040518181526001600160a01b038316906000906000805160206138a78339815191529060200160405180910390a35050565b6000610f0e8284613754565b600080546001600160a01b0384811691161415801561267857506000546001600160a01b03838116911614155b801561268f57506000546001600160a01b03163214155b80156126b457506001600160a01b0383166000908152600f602052604090205460ff16155b80156126d957506001600160a01b0382166000908152600f602052604090205460ff16155b80156126f357506002546001600160a01b03838116911614155b801561270757506001600160a01b03821615155b8015610f0e575050506001600160a01b031630141590565b60006034546033546127319190613754565b4210158015612742575060365460ff165b156127885760355460155460055460045461275d9190613754565b6127679190613754565b306000908152600c6020526040902054612781919061373d565b1015905090565b50600090565b6040805460ff19166001179055603f54421115612d00576108c060175561011860188190556019556000601681905542603355601a546035546002926127d3916136fc565b6127dd919061371b565b6127e7919061371b565b60248190556035546000916127fb9161373d565b90506000601554600554600454846128139190613754565b61281d9190613754565b6128279190613754565b60045461283c90670de0b6b3a76400006136fc565b612846919061371b565b905060006015546005546004548561285e9190613754565b6128689190613754565b6128729190613754565b60055461288790670de0b6b3a76400006136fc565b612891919061371b565b90506000601554600554600454866128a99190613754565b6128b39190613754565b6128bd9190613754565b6015546128d290670de0b6b3a76400006136fc565b6128dc919061371b565b306000908152600d60209081526040808320602f546001600160a01b0316845290915290205490915047906000191461293a57306000908152600d60209081526040808320602f546001600160a01b03168452909152902060001990555b61296a601554600554600454886129519190613754565b61295b9190613754565b6129659190613754565b61338e565b506000612977824761373d565b90506000670de0b6b3a764000061298e87846136fc565b612998919061371b565b90506000670de0b6b3a76400006129af87856136fc565b6129b9919061371b565b90506000670de0b6b3a76400006129d087866136fc565b6129da919061371b565b90506000816129e98486613754565b6129f39190613754565b6129fd908661373d565b90506000601a546002612a1091906136fc565b601654612a1d90846136fc565b612a27919061371b565b90506000601a5460175484612a3c91906136fc565b612a46919061371b565b90506000601a5460195485612a5b91906136fc565b612a65919061371b565b90506000601a5460185486612a7a91906136fc565b612a84919061371b565b90508215612af657603160009054906101000a90046001600160a01b03166001600160a01b031663d0e30db0846040518263ffffffff1660e01b81526004016000604051808303818588803b158015612adc57600080fd5b505af1158015612af0573d6000803e3d6000fd5b50505050505b602c546000906060906001600160a01b0316612b128a86613754565b604051600081818185875af1925050503d8060008114612b4e576040519150601f19603f3d011682016040523d82523d6000602084013e612b53565b606091505b50602d5491935091506001600160a01b0316612b6f8b85613754565b604051600081818185875af1925050503d8060008114612bab576040519150601f19603f3d011682016040523d82523d6000602084013e612bb0565b606091505b50603b546040519294509092506001600160a01b0316908990600081818185875af1925050503d8060008114612c02576040519150601f19603f3d011682016040523d82523d6000602084013e612c07565b606091505b50602454919350915015612cdb57602f54602454602b54604051637c8d9fb960e11b81526001600160a01b039384169363f91b3f72938b93612c57933093600092839291169042906004016137b6565b60606040518083038185885af1158015612c75573d6000803e3d6000fd5b50505050506040513d601f19601f82011682018060405250810190612c9a91906137f1565b50506024546040805189815260208101929092527f424db2872186fa7e7afa7a5e902ed3b49a2ef19c2f5431e672462495dd6b450692500160405180910390a15b50506000600481905560058190556015555061323f9c50505050505050505050505050565b610460601755610230601855610348601955610118601681905542603355601a54603554600292612d30916136fc565b612d3a919061371b565b612d44919061371b565b6024819055603554600091612d589161373d565b9050600060155460055460045484612d709190613754565b612d7a9190613754565b612d849190613754565b600454612d9990670de0b6b3a76400006136fc565b612da3919061371b565b9050600060155460055460045485612dbb9190613754565b612dc59190613754565b612dcf9190613754565b600554612de490670de0b6b3a76400006136fc565b612dee919061371b565b9050600060155460055460045486612e069190613754565b612e109190613754565b612e1a9190613754565b601554612e2f90670de0b6b3a76400006136fc565b612e39919061371b565b306000908152600d60209081526040808320602f546001600160a01b03168452909152902054909150479060001914612e9757306000908152600d60209081526040808320602f546001600160a01b03168452909152902060001990555b612eae601554600554600454886129519190613754565b506000612ebb824761373d565b90506000670de0b6b3a7640000612ed287846136fc565b612edc919061371b565b90506000670de0b6b3a7640000612ef387856136fc565b612efd919061371b565b90506000670de0b6b3a7640000612f1487866136fc565b612f1e919061371b565b9050600081612f2d8486613754565b612f379190613754565b612f41908661373d565b90506000601a546002612f5491906136fc565b601654612f6190846136fc565b612f6b919061371b565b90506000601a5460175484612f8091906136fc565b612f8a919061371b565b90506000601a5460195485612f9f91906136fc565b612fa9919061371b565b90506000601a5460185486612fbe91906136fc565b612fc8919061371b565b9050821561303a57603160009054906101000a90046001600160a01b03166001600160a01b031663d0e30db0846040518263ffffffff1660e01b81526004016000604051808303818588803b15801561302057600080fd5b505af1158015613034573d6000803e3d6000fd5b50505050505b602c546000906060906001600160a01b03166130568a86613754565b604051600081818185875af1925050503d8060008114613092576040519150601f19603f3d011682016040523d82523d6000602084013e613097565b606091505b50602d5491935091506001600160a01b03166130b38b85613754565b604051600081818185875af1925050503d80600081146130ef576040519150601f19603f3d011682016040523d82523d6000602084013e6130f4565b606091505b50603b546040519294509092506001600160a01b0316908990600081818185875af1925050503d8060008114613146576040519150601f19603f3d011682016040523d82523d6000602084013e61314b565b606091505b5060245491935091501561321f57602f54602454602b54604051637c8d9fb960e11b81526001600160a01b039384169363f91b3f72938b9361319b933093600092839291169042906004016137b6565b60606040518083038185885af11580156131b9573d6000803e3d6000fd5b50505050506040513d601f19601f820116820180604052508101906131de91906137f1565b50506024546040805189815260208101929092527f424db2872186fa7e7afa7a5e902ed3b49a2ef19c2f5431e672462495dd6b450692500160405180910390a15b505060006004819055600581905560155550505050505050505050505050505b6040805460ff19169055565b6000806023546022548461325f91906136fc565b613269919061371b565b90506127106132798460646136fc565b613283919061371b565b601560008282546132949190613754565b9091555061271090506132a88460646136fc565b6132b2919061371b565b601460008282546132c39190613754565b909155505060395442101561332a5760235462093a80603854426132e7919061373d565b6132f49062093a8061373d565b6132ff86600a6136fc565b61330991906136fc565b613313919061371b565b61331d919061371b565b6133279082613754565b90505b306000908152600c602052604081208054839290613349908490613754565b909155505060405181815230906001600160a01b038616906000805160206138a78339815191529060200160405180910390a3613386818461373d565b949350505050565b6040805160028082526060820183526000928392919060208301908036833701905050905030816000815181106133c7576133c761381f565b6001600160a01b0392831660209182029290920101526008548251911690829060019081106133f8576133f861381f565b6001600160a01b039283166020918202929092010152602f54604051633b158ab160e11b815291169063762b15629061343e908690600090869030904290600401613835565b600060405180830381600087803b15801561345857600080fd5b505af115801561346c573d6000803e3d6000fd5b5060019695505050505050565b6000806040838503121561348c57600080fd5b50508035926020909101359150565b600060208083528351808285015260005b818110156134c8578581018301518582016040015282016134ac565b818111156134da576000604083870101525b50601f01601f1916929092016040019392505050565b6001600160a01b038116811461350557600080fd5b50565b6000806040838503121561351b57600080fd5b8235613526816134f0565b946020939093013593505050565b60006020828403121561354657600080fd5b5035919050565b60008060006060848603121561356257600080fd5b833561356d816134f0565b9250602084013561357d816134f0565b929592945050506040919091013590565b600080600080608085870312156135a457600080fd5b5050823594602084013594506040840135936060013592509050565b6000602082840312156135d257600080fd5b8135610f0e816134f0565b803580151581146135ed57600080fd5b919050565b6000806040838503121561360557600080fd5b8235613610816134f0565b915061361e602084016135dd565b90509250929050565b60006020828403121561363957600080fd5b610f0e826135dd565b60008060006060848603121561365757600080fd5b8335613662816134f0565b92506020840135613672816134f0565b91506040840135613682816134f0565b809150509250925092565b600080604083850312156136a057600080fd5b82356136ab816134f0565b915060208301356136bb816134f0565b809150509250929050565b60208082526006908201526510a7aba722a960d11b604082015260600190565b634e487b7160e01b600052601160045260246000fd5b6000816000190483118215151615613716576137166136e6565b500290565b60008261373857634e487b7160e01b600052601260045260246000fd5b500490565b60008282101561374f5761374f6136e6565b500390565b60008219821115613767576137676136e6565b500190565b6020808252602a908201527f43616e6e6f7420636f6d706f756e64207a65726f20746f6b656e7320696e746f604082015269081d1a19481d985d5b1d60b21b606082015260800190565b6001600160a01b039687168152602081019590955260408501939093526060840191909152909216608082015260a081019190915260c00190565b60008060006060848603121561380657600080fd5b8351925060208401519150604084015190509250925092565b634e487b7160e01b600052603260045260246000fd5b600060a082018783526020878185015260a0604085015281875180845260c086019150828901935060005b818110156138855784516001600160a01b031683529383019391830191600101613860565b50506001600160a01b0396909616606085015250505060800152939250505056feddf252ad1be2c89b69c2b068fc378daa952ba7f163c4a11628f55a4df523b3efa26469706673582212203e5d5ce6a3cfa21711bff5515fa5ca100f07540bb73181426f571ec404e7d5a164736f6c634300080b00336080604052600280546001600160a01b03199081167332e5539eb6122a5e32ee8f8d62b185bcc3c414831790915560038054909116731d308089a2d1ced3f1ce36b1fcaf815b07217be3179055670de0b6b3a7640000600c55674563918244f40000600d5534801561007057600080fd5b5060405161141438038061141483398101604081905261008f916100e7565b600080546001600160a01b03199081163317909155600480546001600160a01b039485169083161790556001805492909316911617905561011a565b80516001600160a01b03811681146100e257600080fd5b919050565b600080604083850312156100fa57600080fd5b610103836100cb565b9150610111602084016100cb565b90509250929050565b6112eb806101296000396000f3fe6080604052600436106100c25760003560e01c80637645d4501161007f578063ce7c2ac211610059578063ce7c2ac2146101c9578063d0e30db01461022b578063e2d2e21914610233578063efca2eed1461024957600080fd5b80637645d4501461017e578063997664d7146101935780639abd3572146101a957600080fd5b806311ce023d146100c757806314b6ca96146100f057806328fd3198146101125780633a98ef39146101325780634fab0ae814610148578063511719611461015e575b600080fd5b3480156100d357600080fd5b506100dd600c5481565b6040519081526020015b60405180910390f35b3480156100fc57600080fd5b5061011061010b36600461107c565b61025f565b005b34801561011e57600080fd5b506100dd61012d3660046110a6565b6107c8565b34801561013e57600080fd5b506100dd60085481565b34801561015457600080fd5b506100dd600d5481565b34801561016a57600080fd5b506101106101793660046110c8565b610841565b34801561018a57600080fd5b506005546100dd565b34801561019f57600080fd5b506100dd60095481565b3480156101b557600080fd5b506101106101c43660046110c8565b61085d565b3480156101d557600080fd5b5061020b6101e43660046110a6565b60076020526000908152604090208054600182015460028301546003909301549192909184565b6040805194855260208501939093529183015260608201526080016100e7565b610110610d9b565b34801561023f57600080fd5b506100dd600b5481565b34801561025557600080fd5b506100dd600a5481565b6000546001600160a01b0316331461027657600080fd5b600d5481101580156102a15750600d546001600160a01b038316600090815260076020526040902054105b156102c057600580549060006102b6836110f7565b9190505550610306565b600d54811080156102eb5750600d546001600160a01b03831660009081526007602052604090205410155b15610306576005805490600061030083611112565b91905055505b600d54811015806103315750600d546001600160a01b03831660009081526007602052604090205410155b156107ab576001600160a01b038216600090815260076020526040902054600854829161035d91611129565b6103679190611140565b6008556001600160a01b03821660009081526007602052604090205481111561049c576001600160a01b0382166000908152600760205260408120546103ad9083611129565b905060006103ba846107c8565b9050600c5482600b546103cd9190611158565b6103d79190611177565b6001600160a01b03851660009081526007602052604081206003018054909190610402908490611140565b90915550506001600160a01b03841660009081526007602052604090208390558061042c85610fc9565b6104369190611129565b6001600160a01b0385166000908152600760209081526040808320600190810194909455600682528083208151808301909252958152600b5481830190815286548086018855968452919092209151600290950290910193845551920191909155505050565b6001600160a01b0382166000908152600760205260409020548110156107a75760006104c7836107c8565b6001600160a01b038416600090815260076020526040812054919250906104ef908490611129565b6001600160a01b0385166000908152600660205260408120549192509061051890600190611129565b9050805b6001600160a01b038616600090815260066020526040812080548390811061054657610546611199565b600091825260208083206002909202909101546001600160a01b038a1683526006909152604082208054919350908490811061058457610584611199565b906000526020600020906002020160010154905084821161064b57600c546105ac8284611158565b6105b69190611177565b6001600160a01b038916600090815260076020526040812060030180549091906105e1908490611129565b909155506105f190508286611129565b6001600160a01b03891660009081526006602052604090208054919650908061061c5761061c6111af565b60008281526020812060026000199093019283020181815560010155905584610646575050610700565b6106df565b6106558583611129565b6001600160a01b038916600090815260066020526040902080548590811061067f5761067f611199565b6000918252602090912060029091020155600c5461069d8287611158565b6106a79190611177565b6001600160a01b038916600090815260076020526040812060030180549091906106d2908490611129565b9091555061070092505050565b826106eb575050610700565b505080806106f890611112565b91505061051c565b506001600160a01b038516600090815260076020526040812085905561072586610fc9565b90508381101561077c5760405162461bcd60e51b815260206004820152601b60248201527f436c61696d2070656e64696e672072657761726473206669727374000000000060448201526064015b60405180910390fd5b6107868482611129565b6001600160a01b038716600090815260076020526040902060010155505050505b5050565b6001600160a01b0391909116600090815260076020526040902055565b600d546001600160a01b038216600090815260076020526040812054909111156107f457506000919050565b60006107ff83610fc9565b6001600160a01b03841660009081526007602052604090206001015490915080821161082f575060009392505050565b6108398183611129565b949350505050565b6000546001600160a01b0316331461085857600080fd5b600d55565b80158061086a5750806001145b806108755750806002145b6108b25760405162461bcd60e51b815260206004820152600e60248201526d24b73b30b634b21030b1ba34b7b760911b6044820152606401610773565b60006108bd336107c8565b9050600081116109055760405162461bcd60e51b81526020600482015260136024820152724e6f207265776172647320746f20636c61696d60681b6044820152606401610773565b80600a60008282546109179190611140565b90915550508161099c5760025460405163a9059cbb60e01b8152336004820152602481018390526001600160a01b039091169063a9059cbb906044016020604051808303816000875af1158015610972573d6000803e3d6000fd5b505050506040513d601f19601f8201168201806040525081019061099691906111c5565b50610d53565b6040805160038082526080820190925260009160208201606080368337505060025482519293506001600160a01b0316918391506000906109df576109df611199565b6001600160a01b039283166020918202929092010152600354825191169082906001908110610a1057610a10611199565b6001600160a01b039283166020918202929092010152600054825191169082906002908110610a4157610a41611199565b6001600160a01b0392831660209182029290920101526001546040516370a0823160e01b815233600482015260009291909116906370a0823190602401602060405180830381865afa158015610a9b573d6000803e3d6000fd5b505050506040513d601f19601f82011682018060405250810190610abf91906111e7565b6002546004805460405163095ea7b360e01b81526001600160a01b03918216928101929092526024820187905292935091169063095ea7b3906044016020604051808303816000875af1158015610b1a573d6000803e3d6000fd5b505050506040513d601f19601f82011682018060405250810190610b3e91906111c5565b5060018054604051632decc72760e21b815260048101929092526001600160a01b03169063b7b31c9c90602401600060405180830381600087803b158015610b8557600080fd5b505af1158015610b99573d6000803e3d6000fd5b505060048054604051635c11d79560e01b81526001600160a01b039091169350635c11d7959250610bd591879160009188913391429101611244565b600060405180830381600087803b158015610bef57600080fd5b505af1158015610c03573d6000803e3d6000fd5b5050600154604051632decc72760e21b8152600060048201526001600160a01b03909116925063b7b31c9c9150602401600060405180830381600087803b158015610c4d57600080fd5b505af1158015610c61573d6000803e3d6000fd5b505050508360011415610d50576001546040516370a0823160e01b815233600482015260009183916001600160a01b03909116906370a0823190602401602060405180830381865afa158015610cbb573d6000803e3d6000fd5b505050506040513d601f19601f82011682018060405250810190610cdf91906111e7565b610ce99190611129565b6001546040516345ed9c7160e11b8152336004820152602481018390529192506001600160a01b031690638bdb38e290604401600060405180830381600087803b158015610d3657600080fd5b505af1158015610d4a573d6000803e3d6000fd5b50505050505b50505b3360009081526007602052604081206002018054839290610d75908490611140565b90915550610d84905033610fc9565b336000908152600760205260409020600101555050565b6002546040516370a0823160e01b81523060048201526000916001600160a01b0316906370a0823190602401602060405180830381865afa158015610de4573d6000803e3d6000fd5b505050506040513d601f19601f82011682018060405250810190610e0891906111e7565b6040805160028082526060820183529293506000929091602083019080368337505060035482519293506001600160a01b031691839150600090610e4e57610e4e611199565b6001600160a01b039283166020918202929092010152600254825191169082906001908110610e7f57610e7f611199565b6001600160a01b0392831660209182029290920101526004805460405163c57559dd60e01b815292169163c57559dd913491610ec49160009187913091429101611280565b6000604051808303818588803b158015610edd57600080fd5b505af1158015610ef1573d6000803e3d6000fd5b50506002546040516370a0823160e01b8152306004820152600094508693506001600160a01b0390911691506370a0823190602401602060405180830381865afa158015610f43573d6000803e3d6000fd5b505050506040513d601f19601f82011682018060405250810190610f6791906111e7565b610f719190611129565b90508060096000828254610f859190611140565b909155505060085415610fc45760085481600c54610fa39190611158565b610fad9190611177565b600b6000828254610fbe9190611140565b90915550505b505050565b6001600160a01b03811660009081526007602052604081206003810154600c54600b54925491929091610ffc9190611158565b6110069190611177565b1161101357506000919050565b6001600160a01b03821660009081526007602052604090206003810154600c54600b549254919290916110469190611158565b6110509190611177565b61105a9190611129565b92915050565b80356001600160a01b038116811461107757600080fd5b919050565b6000806040838503121561108f57600080fd5b61109883611060565b946020939093013593505050565b6000602082840312156110b857600080fd5b6110c182611060565b9392505050565b6000602082840312156110da57600080fd5b5035919050565b634e487b7160e01b600052601160045260246000fd5b600060001982141561110b5761110b6110e1565b5060010190565b600081611121576111216110e1565b506000190190565b60008282101561113b5761113b6110e1565b500390565b60008219821115611153576111536110e1565b500190565b6000816000190483118215151615611172576111726110e1565b500290565b60008261119457634e487b7160e01b600052601260045260246000fd5b500490565b634e487b7160e01b600052603260045260246000fd5b634e487b7160e01b600052603160045260246000fd5b6000602082840312156111d757600080fd5b815180151581146110c157600080fd5b6000602082840312156111f957600080fd5b5051919050565b600081518084526020808501945080840160005b838110156112395781516001600160a01b031687529582019590820190600101611214565b509495945050505050565b85815284602082015260a06040820152600061126360a0830186611200565b6001600160a01b0394909416606083015250608001529392505050565b8481526080602082015260006112996080830186611200565b6001600160a01b0394909416604083015250606001529291505056fea26469706673582212209ecca02a2338911a81ceb8ed77163c55f9ade05a496d0ab0866e1da2987f699664736f6c634300080b0033ddf252ad1be2c89b69c2b068fc378daa952ba7f163c4a11628f55a4df523b3ef",
    "sourcePath": "/home/kryptomind/Documents/HardHat/ETHWhales/contracts/ETHS.sol",
    "compiler": {
        "name": "solc",
        "version": "0.8.11+commit.d7f03943"
    },
    "functionHashes": {
        "MASK()": "e91f214e",
        "WAVAX()": "73b295c2",
        "_maxTxAmount()": "7d1db4a5",
        "_maxWallet()": "82247ec0",
        "allowance(address,address)": "dd62ed3e",
        "approve(address,uint256)": "095ea7b3",
        "authorize(address)": "b6a5d7de",
        "balanceOf(address)": "70a08231",
        "charityCollected()": "03c447c4",
        "charityWallet()": "7b208769",
        "decimals()": "313ce567",
        "distributorAddress()": "a51af4c5",
        "enableLaunch()": "ff5211bb",
        "getCirculatingSupply()": "2b112e49",
        "getOwner()": "893d20e8",
        "getPersonalAmountInVault()": "21a46d88",
        "getPersonalVaultCooldown()": "d3f04e4b",
        "initiateLaunchTaxes()": "9e71f074",
        "isAuthorized(address)": "fe9fbb80",
        "isOwner(address)": "2f54bf6e",
        "launchEndTime()": "49a433a2",
        "launchStartTime()": "7bb501ec",
        "liquidityFee()": "98118cb4",
        "liquidityFeeReceiver()": "bfa21d6a",
        "localVaultCooldowns(address)": "4073bd91",
        "marketingFeeReceiver()": "e96fada2",
        "marketingTax()": "1d2cb02d",
        "mintUser(address,uint256)": "465e2168",
        "name()": "06fdde03",
        "nodeClaimTransfer(address,uint256)": "0fc5a5a0",
        "nodeMintTransfer(address,uint256)": "26e57107",
        "pair()": "a8aa1b31",
        "rewardManager()": "0f4ef8a6",
        "rewardPool()": "66666aa9",
        "router()": "f887ea40",
        "setBlacklistUser(address,bool)": "5acc1d3b",
        "setEtherstonesRewardManager(address)": "af8d82d5",
        "setFeeReceivers(address,address,address)": "d7c01032",
        "setInSwap(bool)": "b7b31c9c",
        "setIsFeeExempt(address,bool)": "658d4b7f",
        "setIsTxLimitExempt(address,bool)": "f84ba65d",
        "setLpPair(address,bool)": "80c581d1",
        "setMaxWallet(uint256)": "5d0044ca",
        "setMaxWalletExempt(address,bool)": "7537ccb6",
        "setSellFees(uint256,uint256)": "9fd8234e",
        "setSwapBackSettings(uint256,uint256)": "01beb787",
        "setTransferEnabled(uint256)": "6a688334",
        "setTxLimit(uint256)": "5c85974f",
        "setVaultFees(uint256,uint256,uint256,uint256)": "9814f40f",
        "setVaultMinDistribution(uint256)": "ef67b51b",
        "setVaultWithdrawCooldown(uint256)": "17ae84a3",
        "setWalletFees(uint256,uint256,uint256,uint256)": "2f00d568",
        "symbol()": "95d89b41",
        "tokenAddress()": "9d76ea58",
        "totalCompoundedFromNode()": "0eaf0b49",
        "totalLocked()": "56891412",
        "totalSupply()": "18160ddd",
        "transfer(address,uint256)": "a9059cbb",
        "transferFrom(address,address,uint256)": "23b872dd",
        "transferOwnership(address)": "f2fde38b",
        "treasuryFeeReceiver()": "2af10fac",
        "treasuryTax()": "ecfeb5ba",
        "unauthorize(address)": "f0b37c04",
        "vaultCompoundFromNode(address,uint256)": "fe9c777f",
        "vaultDepositNoFees(address,uint256)": "8bdb38e2",
        "vaultDepositTransfer(uint256)": "468ef67c",
        "vaultWithdrawTransfer(uint256)": "8b951bbc"
    },
    "gasEstimates": {
        "creation": {
            "codeDepositCost": "2917600",
            "executionCost": "infinite",
            "totalCost": "infinite"
        },
        "external": {
            "MASK()": "295",
            "WAVAX()": "2448",
            "_maxTxAmount()": "2375",
            "_maxWallet()": "2419",
            "allowance(address,address)": "infinite",
            "approve(address,uint256)": "24629",
            "authorize(address)": "26824",
            "balanceOf(address)": "2609",
            "charityCollected()": "2376",
            "charityWallet()": "2492",
            "decimals()": "268",
            "distributorAddress()": "2426",
            "enableLaunch()": "46767",
            "getCirculatingSupply()": "6770",
            "getOwner()": "2399",
            "getPersonalAmountInVault()": "2462",
            "getPersonalVaultCooldown()": "4679",
            "initiateLaunchTaxes()": "46702",
            "isAuthorized(address)": "2675",
            "isOwner(address)": "2555",
            "launchEndTime()": "2374",
            "launchStartTime()": "2353",
            "liquidityFee()": "2352",
            "liquidityFeeReceiver()": "2449",
            "localVaultCooldowns(address)": "2615",
            "marketingFeeReceiver()": "2470",
            "marketingTax()": "2375",
            "mintUser(address,uint256)": "infinite",
            "name()": "infinite",
            "nodeClaimTransfer(address,uint256)": "infinite",
            "nodeMintTransfer(address,uint256)": "infinite",
            "pair()": "2448",
            "rewardManager()": "2428",
            "rewardPool()": "2471",
            "router()": "2425",
            "setBlacklistUser(address,bool)": "26992",
            "setEtherstonesRewardManager(address)": "99708",
            "setFeeReceivers(address,address,address)": "infinite",
            "setInSwap(bool)": "26759",
            "setIsFeeExempt(address,bool)": "26970",
            "setIsTxLimitExempt(address,bool)": "26924",
            "setLpPair(address,bool)": "26971",
            "setMaxWallet(uint256)": "24580",
            "setMaxWalletExempt(address,bool)": "26991",
            "setSellFees(uint256,uint256)": "46778",
            "setSwapBackSettings(uint256,uint256)": "46669",
            "setTransferEnabled(uint256)": "48826",
            "setTxLimit(uint256)": "24558",
            "setVaultFees(uint256,uint256,uint256,uint256)": "infinite",
            "setVaultMinDistribution(uint256)": "infinite",
            "setVaultWithdrawCooldown(uint256)": "24599",
            "setWalletFees(uint256,uint256,uint256,uint256)": "infinite",
            "symbol()": "infinite",
            "tokenAddress()": "2449",
            "totalCompoundedFromNode()": "2353",
            "totalLocked()": "2396",
            "totalSupply()": "2350",
            "transfer(address,uint256)": "infinite",
            "transferFrom(address,address,uint256)": "infinite",
            "transferOwnership(address)": "52190",
            "treasuryFeeReceiver()": "2427",
            "treasuryTax()": "2351",
            "unauthorize(address)": "26849",
            "vaultCompoundFromNode(address,uint256)": "infinite",
            "vaultDepositNoFees(address,uint256)": "infinite",
            "vaultDepositTransfer(uint256)": "infinite",
            "vaultWithdrawTransfer(uint256)": "infinite"
        },
        "internal": {
            "ETHwToAVAX(uint256)": "infinite",
            "_approve(address,address,uint256)": "infinite",
            "_basicTransfer(address,address,uint256)": "infinite",
            "_burn(uint256)": "infinite",
            "_mint(address,uint256)": "infinite",
            "_transferFrom(address,address,uint256)": "infinite",
            "hasLimits(address,address)": "13175",
            "shouldSwapBack()": "infinite",
            "swapBack()": "infinite",
            "takeSellFee(address,uint256)": "infinite"
        }
    }
}