{
    "contractName": "Events",
    "abi": [
        {
            "anonymous": false,
            "inputs": [
                {
                    "indexed": false,
                    "internalType": "uint256",
                    "name": "",
                    "type": "uint256"
                }
            ],
            "name": "event1Created",
            "type": "event"
        },
        {
            "inputs": [
                {
                    "internalType": "uint256",
                    "name": "_amount",
                    "type": "uint256"
                }
            ],
            "name": "event1",
            "outputs": [],
            "stateMutability": "nonpayable",
            "type": "function"
        }
    ],
    "bytecode": "608060405234801561001057600080fd5b5060c28061001f6000396000f3fe6080604052348015600f57600080fd5b506004361060285760003560e01c806384e603ad14602d575b600080fd5b603c60383660046074565b603e565b005b6040518181527f1278ba7ce8530e04b650f66c7006efeff36b06ea749e0727165c4beb2ea077e69060200160405180910390a150565b600060208284031215608557600080fd5b503591905056fea2646970667358221220d8289b0783dfa3f046ea33ed61130f78067492eefdd7b6e3a502e48635972bba64736f6c634300080b0033",
    "sourcePath": "/home/kryptomind/Documents/HardHat/ETHWhales/contracts/Practice/Events.sol",
    "compiler": {
        "name": "solc",
        "version": "0.8.11+commit.d7f03943"
    },
    "functionHashes": {
        "event1(uint256)": "84e603ad"
    },
    "gasEstimates": {
        "creation": {
            "codeDepositCost": "38800",
            "executionCost": "93",
            "totalCost": "38893"
        },
        "external": {
            "event1(uint256)": "1258"
        }
    }
}